{
  "_format": "hh-sol-artifact-1",
  "contractName": "MiTokenParaVenta",
  "sourceName": "contracts/learning/PurchaseToken.sol",
  "abi": [
    {
      "inputs": [
        {
          "internalType": "address",
          "name": "_usdcAddress",
          "type": "address"
        }
      ],
      "stateMutability": "nonpayable",
      "type": "constructor"
    },
    {
      "anonymous": false,
      "inputs": [
        {
          "indexed": true,
          "internalType": "address",
          "name": "owner",
          "type": "address"
        },
        {
          "indexed": true,
          "internalType": "address",
          "name": "spender",
          "type": "address"
        },
        {
          "indexed": false,
          "internalType": "uint256",
          "name": "value",
          "type": "uint256"
        }
      ],
      "name": "Approval",
      "type": "event"
    },
    {
      "anonymous": false,
      "inputs": [
        {
          "indexed": true,
          "internalType": "bytes32",
          "name": "role",
          "type": "bytes32"
        },
        {
          "indexed": true,
          "internalType": "bytes32",
          "name": "previousAdminRole",
          "type": "bytes32"
        },
        {
          "indexed": true,
          "internalType": "bytes32",
          "name": "newAdminRole",
          "type": "bytes32"
        }
      ],
      "name": "RoleAdminChanged",
      "type": "event"
    },
    {
      "anonymous": false,
      "inputs": [
        {
          "indexed": true,
          "internalType": "bytes32",
          "name": "role",
          "type": "bytes32"
        },
        {
          "indexed": true,
          "internalType": "address",
          "name": "account",
          "type": "address"
        },
        {
          "indexed": true,
          "internalType": "address",
          "name": "sender",
          "type": "address"
        }
      ],
      "name": "RoleGranted",
      "type": "event"
    },
    {
      "anonymous": false,
      "inputs": [
        {
          "indexed": true,
          "internalType": "bytes32",
          "name": "role",
          "type": "bytes32"
        },
        {
          "indexed": true,
          "internalType": "address",
          "name": "account",
          "type": "address"
        },
        {
          "indexed": true,
          "internalType": "address",
          "name": "sender",
          "type": "address"
        }
      ],
      "name": "RoleRevoked",
      "type": "event"
    },
    {
      "anonymous": false,
      "inputs": [
        {
          "indexed": true,
          "internalType": "address",
          "name": "from",
          "type": "address"
        },
        {
          "indexed": true,
          "internalType": "address",
          "name": "to",
          "type": "address"
        },
        {
          "indexed": false,
          "internalType": "uint256",
          "name": "value",
          "type": "uint256"
        }
      ],
      "name": "Transfer",
      "type": "event"
    },
    {
      "inputs": [],
      "name": "BURNER_ROLE",
      "outputs": [
        {
          "internalType": "bytes32",
          "name": "",
          "type": "bytes32"
        }
      ],
      "stateMutability": "view",
      "type": "function"
    },
    {
      "inputs": [],
      "name": "DEFAULT_ADMIN_ROLE",
      "outputs": [
        {
          "internalType": "bytes32",
          "name": "",
          "type": "bytes32"
        }
      ],
      "stateMutability": "view",
      "type": "function"
    },
    {
      "inputs": [],
      "name": "MINTER_ROLE",
      "outputs": [
        {
          "internalType": "bytes32",
          "name": "",
          "type": "bytes32"
        }
      ],
      "stateMutability": "view",
      "type": "function"
    },
    {
      "inputs": [
        {
          "internalType": "address",
          "name": "owner",
          "type": "address"
        },
        {
          "internalType": "address",
          "name": "spender",
          "type": "address"
        }
      ],
      "name": "allowance",
      "outputs": [
        {
          "internalType": "uint256",
          "name": "",
          "type": "uint256"
        }
      ],
      "stateMutability": "view",
      "type": "function"
    },
    {
      "inputs": [
        {
          "internalType": "address",
          "name": "spender",
          "type": "address"
        },
        {
          "internalType": "uint256",
          "name": "amount",
          "type": "uint256"
        }
      ],
      "name": "approve",
      "outputs": [
        {
          "internalType": "bool",
          "name": "",
          "type": "bool"
        }
      ],
      "stateMutability": "nonpayable",
      "type": "function"
    },
    {
      "inputs": [
        {
          "internalType": "address",
          "name": "account",
          "type": "address"
        }
      ],
      "name": "balanceOf",
      "outputs": [
        {
          "internalType": "uint256",
          "name": "",
          "type": "uint256"
        }
      ],
      "stateMutability": "view",
      "type": "function"
    },
    {
      "inputs": [],
      "name": "decimals",
      "outputs": [
        {
          "internalType": "uint8",
          "name": "",
          "type": "uint8"
        }
      ],
      "stateMutability": "view",
      "type": "function"
    },
    {
      "inputs": [
        {
          "internalType": "address",
          "name": "spender",
          "type": "address"
        },
        {
          "internalType": "uint256",
          "name": "subtractedValue",
          "type": "uint256"
        }
      ],
      "name": "decreaseAllowance",
      "outputs": [
        {
          "internalType": "bool",
          "name": "",
          "type": "bool"
        }
      ],
      "stateMutability": "nonpayable",
      "type": "function"
    },
    {
      "inputs": [],
      "name": "exchangeRate",
      "outputs": [
        {
          "internalType": "uint256",
          "name": "",
          "type": "uint256"
        }
      ],
      "stateMutability": "view",
      "type": "function"
    },
    {
      "inputs": [
        {
          "internalType": "bytes32",
          "name": "role",
          "type": "bytes32"
        }
      ],
      "name": "getRoleAdmin",
      "outputs": [
        {
          "internalType": "bytes32",
          "name": "",
          "type": "bytes32"
        }
      ],
      "stateMutability": "view",
      "type": "function"
    },
    {
      "inputs": [
        {
          "internalType": "bytes32",
          "name": "role",
          "type": "bytes32"
        },
        {
          "internalType": "address",
          "name": "account",
          "type": "address"
        }
      ],
      "name": "grantRole",
      "outputs": [],
      "stateMutability": "nonpayable",
      "type": "function"
    },
    {
      "inputs": [
        {
          "internalType": "bytes32",
          "name": "role",
          "type": "bytes32"
        },
        {
          "internalType": "address",
          "name": "account",
          "type": "address"
        }
      ],
      "name": "hasRole",
      "outputs": [
        {
          "internalType": "bool",
          "name": "",
          "type": "bool"
        }
      ],
      "stateMutability": "view",
      "type": "function"
    },
    {
      "inputs": [
        {
          "internalType": "address",
          "name": "spender",
          "type": "address"
        },
        {
          "internalType": "uint256",
          "name": "addedValue",
          "type": "uint256"
        }
      ],
      "name": "increaseAllowance",
      "outputs": [
        {
          "internalType": "bool",
          "name": "",
          "type": "bool"
        }
      ],
      "stateMutability": "nonpayable",
      "type": "function"
    },
    {
      "inputs": [],
      "name": "name",
      "outputs": [
        {
          "internalType": "string",
          "name": "",
          "type": "string"
        }
      ],
      "stateMutability": "view",
      "type": "function"
    },
    {
      "inputs": [
        {
          "internalType": "uint256",
          "name": "_usdcAmount",
          "type": "uint256"
        }
      ],
      "name": "purchaseFixRate",
      "outputs": [],
      "stateMutability": "nonpayable",
      "type": "function"
    },
    {
      "inputs": [
        {
          "internalType": "uint256",
          "name": "_usdcAmount",
          "type": "uint256"
        }
      ],
      "name": "purchaseVariableRate",
      "outputs": [],
      "stateMutability": "nonpayable",
      "type": "function"
    },
    {
      "inputs": [
        {
          "internalType": "bytes32",
          "name": "role",
          "type": "bytes32"
        },
        {
          "internalType": "address",
          "name": "account",
          "type": "address"
        }
      ],
      "name": "renounceRole",
      "outputs": [],
      "stateMutability": "nonpayable",
      "type": "function"
    },
    {
      "inputs": [
        {
          "internalType": "bytes32",
          "name": "role",
          "type": "bytes32"
        },
        {
          "internalType": "address",
          "name": "account",
          "type": "address"
        }
      ],
      "name": "revokeRole",
      "outputs": [],
      "stateMutability": "nonpayable",
      "type": "function"
    },
    {
      "inputs": [
        {
          "internalType": "bytes4",
          "name": "interfaceId",
          "type": "bytes4"
        }
      ],
      "name": "supportsInterface",
      "outputs": [
        {
          "internalType": "bool",
          "name": "",
          "type": "bool"
        }
      ],
      "stateMutability": "view",
      "type": "function"
    },
    {
      "inputs": [],
      "name": "symbol",
      "outputs": [
        {
          "internalType": "string",
          "name": "",
          "type": "string"
        }
      ],
      "stateMutability": "view",
      "type": "function"
    },
    {
      "inputs": [],
      "name": "totalSupply",
      "outputs": [
        {
          "internalType": "uint256",
          "name": "",
          "type": "uint256"
        }
      ],
      "stateMutability": "view",
      "type": "function"
    },
    {
      "inputs": [
        {
          "internalType": "address",
          "name": "to",
          "type": "address"
        },
        {
          "internalType": "uint256",
          "name": "amount",
          "type": "uint256"
        }
      ],
      "name": "transfer",
      "outputs": [
        {
          "internalType": "bool",
          "name": "",
          "type": "bool"
        }
      ],
      "stateMutability": "nonpayable",
      "type": "function"
    },
    {
      "inputs": [
        {
          "internalType": "address",
          "name": "from",
          "type": "address"
        },
        {
          "internalType": "address",
          "name": "to",
          "type": "address"
        },
        {
          "internalType": "uint256",
          "name": "amount",
          "type": "uint256"
        }
      ],
      "name": "transferFrom",
      "outputs": [
        {
          "internalType": "bool",
          "name": "",
          "type": "bool"
        }
      ],
      "stateMutability": "nonpayable",
      "type": "function"
    }
  ],
  "bytecode": "0x60806040523480156200001157600080fd5b5060405162003008380380620030088339818101604052810190620000379190620003e5565b6040518060400160405280601381526020017f4d6920546f6b656e20506172612056656e7461000000000000000000000000008152506040518060400160405280600481526020017f4d545056000000000000000000000000000000000000000000000000000000008152508160039080519060200190620000bb929190620002cb565b508060049080519060200190620000d4929190620002cb565b50505080600660006101000a81548173ffffffffffffffffffffffffffffffffffffffff021916908373ffffffffffffffffffffffffffffffffffffffff1602179055506200012d6000801b336200016660201b60201c565b6200015f7f9f2df0fed2c77648de5860a4cc508cd0818c85b8b8a1ab4ceeef8d981c8956a6336200016660201b60201c565b506200047c565b6200017882826200025860201b60201c565b620002545760016005600084815260200190815260200160002060000160008373ffffffffffffffffffffffffffffffffffffffff1673ffffffffffffffffffffffffffffffffffffffff16815260200190815260200160002060006101000a81548160ff021916908315150217905550620001f9620002c360201b60201c565b73ffffffffffffffffffffffffffffffffffffffff168173ffffffffffffffffffffffffffffffffffffffff16837f2f8788117e7eff1d82e926ec794901d17c78024a50270940304540a733656f0d60405160405180910390a45b5050565b60006005600084815260200190815260200160002060000160008373ffffffffffffffffffffffffffffffffffffffff1673ffffffffffffffffffffffffffffffffffffffff16815260200190815260200160002060009054906101000a900460ff16905092915050565b600033905090565b828054620002d99062000446565b90600052602060002090601f016020900481019282620002fd576000855562000349565b82601f106200031857805160ff191683800117855562000349565b8280016001018555821562000349579182015b82811115620003485782518255916020019190600101906200032b565b5b5090506200035891906200035c565b5090565b5b80821115620003775760008160009055506001016200035d565b5090565b600080fd5b600073ffffffffffffffffffffffffffffffffffffffff82169050919050565b6000620003ad8262000380565b9050919050565b620003bf81620003a0565b8114620003cb57600080fd5b50565b600081519050620003df81620003b4565b92915050565b600060208284031215620003fe57620003fd6200037b565b5b60006200040e84828501620003ce565b91505092915050565b7f4e487b7100000000000000000000000000000000000000000000000000000000600052602260045260246000fd5b600060028204905060018216806200045f57607f821691505b6020821081141562000476576200047562000417565b5b50919050565b612b7c806200048c6000396000f3fe608060405234801561001057600080fd5b506004361061014d5760003560e01c80633ba0b9a9116100c3578063a217fddf1161007c578063a217fddf146103c6578063a457c2d7146103e4578063a9059cbb14610414578063d539139314610444578063d547741f14610462578063dd62ed3e1461047e5761014d565b80633ba0b9a9146102f25780635c7ba6a21461031057806370a082311461032c578063863552c91461035c57806391d148541461037857806395d89b41146103a85761014d565b8063248a9ca311610115578063248a9ca31461021e578063282c51f31461024e5780632f2ff15d1461026c578063313ce5671461028857806336568abe146102a657806339509351146102c25761014d565b806301ffc9a71461015257806306fdde0314610182578063095ea7b3146101a057806318160ddd146101d057806323b872dd146101ee575b600080fd5b61016c60048036038101906101679190611b6b565b6104ae565b6040516101799190611bb3565b60405180910390f35b61018a610528565b6040516101979190611c67565b60405180910390f35b6101ba60048036038101906101b59190611d1d565b6105ba565b6040516101c79190611bb3565b60405180910390f35b6101d86105dd565b6040516101e59190611d6c565b60405180910390f35b61020860048036038101906102039190611d87565b6105e7565b6040516102159190611bb3565b60405180910390f35b61023860048036038101906102339190611e10565b610616565b6040516102459190611e4c565b60405180910390f35b610256610636565b6040516102639190611e4c565b60405180910390f35b61028660048036038101906102819190611e67565b61065a565b005b61029061067b565b60405161029d9190611ec3565b60405180910390f35b6102c060048036038101906102bb9190611e67565b610684565b005b6102dc60048036038101906102d79190611d1d565b610707565b6040516102e99190611bb3565b60405180910390f35b6102fa61073e565b6040516103079190611d6c565b60405180910390f35b61032a60048036038101906103259190611ede565b610743565b005b61034660048036038101906103419190611f0b565b6109db565b6040516103539190611d6c565b60405180910390f35b61037660048036038101906103719190611ede565b610a23565b005b610392600480360381019061038d9190611e67565b610cbb565b60405161039f9190611bb3565b60405180910390f35b6103b0610d26565b6040516103bd9190611c67565b60405180910390f35b6103ce610db8565b6040516103db9190611e4c565b60405180910390f35b6103fe60048036038101906103f99190611d1d565b610dbf565b60405161040b9190611bb3565b60405180910390f35b61042e60048036038101906104299190611d1d565b610e36565b60405161043b9190611bb3565b60405180910390f35b61044c610e59565b6040516104599190611e4c565b60405180910390f35b61047c60048036038101906104779190611e67565b610e7d565b005b61049860048036038101906104939190611f38565b610e9e565b6040516104a59190611d6c565b60405180910390f35b60007f7965db0b000000000000000000000000000000000000000000000000000000007bffffffffffffffffffffffffffffffffffffffffffffffffffffffff1916827bffffffffffffffffffffffffffffffffffffffffffffffffffffffff19161480610521575061052082610f25565b5b9050919050565b60606003805461053790611fa7565b80601f016020809104026020016040519081016040528092919081815260200182805461056390611fa7565b80156105b05780601f10610585576101008083540402835291602001916105b0565b820191906000526020600020905b81548152906001019060200180831161059357829003601f168201915b5050505050905090565b6000806105c5610f8f565b90506105d2818585610f97565b600191505092915050565b6000600254905090565b6000806105f2610f8f565b90506105ff858285611162565b61060a8585856111ee565b60019150509392505050565b600060056000838152602001908152602001600020600101549050919050565b7f3c11d16cbaffd01df69ce1c404f6340ee057498f5f00246190ea54220576a84881565b61066382610616565b61066c8161146f565b6106768383611483565b505050565b60006012905090565b61068c610f8f565b73ffffffffffffffffffffffffffffffffffffffff168173ffffffffffffffffffffffffffffffffffffffff16146106f9576040517f08c379a00000000000000000000000000000000000000000000000000000000081526004016106f09061204b565b60405180910390fd5b6107038282611564565b5050565b600080610712610f8f565b90506107338185856107248589610e9e565b61072e919061209a565b610f97565b600191505092915050565b601981565b6000600660009054906101000a900473ffffffffffffffffffffffffffffffffffffffff1673ffffffffffffffffffffffffffffffffffffffff166370a08231336040518263ffffffff1660e01b81526004016107a091906120ff565b602060405180830381600087803b1580156107ba57600080fd5b505af11580156107ce573d6000803e3d6000fd5b505050506040513d601f19601f820116820180604052508101906107f2919061212f565b905081811015610837576040517f08c379a000000000000000000000000000000000000000000000000000000000815260040161082e906121a8565b60405180910390fd5b6000600660009054906101000a900473ffffffffffffffffffffffffffffffffffffffff1673ffffffffffffffffffffffffffffffffffffffff1663dd62ed3e33306040518363ffffffff1660e01b81526004016108969291906121c8565b602060405180830381600087803b1580156108b057600080fd5b505af11580156108c4573d6000803e3d6000fd5b505050506040513d601f19601f820116820180604052508101906108e8919061212f565b90508281101561092d576040517f08c379a00000000000000000000000000000000000000000000000000000000081526004016109249061223d565b60405180910390fd5b600660009054906101000a900473ffffffffffffffffffffffffffffffffffffffff1673ffffffffffffffffffffffffffffffffffffffff166323b872dd3330866040518463ffffffff1660e01b815260040161098c9392919061225d565b600060405180830381600087803b1580156109a657600080fd5b505af11580156109ba573d6000803e3d6000fd5b5050505060006109c984611646565b90506109d533826116b0565b50505050565b60008060008373ffffffffffffffffffffffffffffffffffffffff1673ffffffffffffffffffffffffffffffffffffffff168152602001908152602001600020549050919050565b6000600660009054906101000a900473ffffffffffffffffffffffffffffffffffffffff1673ffffffffffffffffffffffffffffffffffffffff166370a08231336040518263ffffffff1660e01b8152600401610a8091906120ff565b602060405180830381600087803b158015610a9a57600080fd5b505af1158015610aae573d6000803e3d6000fd5b505050506040513d601f19601f82011682018060405250810190610ad2919061212f565b905081811015610b17576040517f08c379a0000000000000000000000000000000000000000000000000000000008152600401610b0e906121a8565b60405180910390fd5b6000600660009054906101000a900473ffffffffffffffffffffffffffffffffffffffff1673ffffffffffffffffffffffffffffffffffffffff1663dd62ed3e33306040518363ffffffff1660e01b8152600401610b769291906121c8565b602060405180830381600087803b158015610b9057600080fd5b505af1158015610ba4573d6000803e3d6000fd5b505050506040513d601f19601f82011682018060405250810190610bc8919061212f565b905082811015610c0d576040517f08c379a0000000000000000000000000000000000000000000000000000000008152600401610c049061223d565b60405180910390fd5b600660009054906101000a900473ffffffffffffffffffffffffffffffffffffffff1673ffffffffffffffffffffffffffffffffffffffff166323b872dd3330866040518463ffffffff1660e01b8152600401610c6c9392919061225d565b600060405180830381600087803b158015610c8657600080fd5b505af1158015610c9a573d6000803e3d6000fd5b505050506000610ca984611810565b9050610cb533826116b0565b50505050565b60006005600084815260200190815260200160002060000160008373ffffffffffffffffffffffffffffffffffffffff1673ffffffffffffffffffffffffffffffffffffffff16815260200190815260200160002060009054906101000a900460ff16905092915050565b606060048054610d3590611fa7565b80601f0160208091040260200160405190810160405280929190818152602001828054610d6190611fa7565b8015610dae5780601f10610d8357610100808354040283529160200191610dae565b820191906000526020600020905b815481529060010190602001808311610d9157829003601f168201915b5050505050905090565b6000801b81565b600080610dca610f8f565b90506000610dd88286610e9e565b905083811015610e1d576040517f08c379a0000000000000000000000000000000000000000000000000000000008152600401610e1490612306565b60405180910390fd5b610e2a8286868403610f97565b60019250505092915050565b600080610e41610f8f565b9050610e4e8185856111ee565b600191505092915050565b7f9f2df0fed2c77648de5860a4cc508cd0818c85b8b8a1ab4ceeef8d981c8956a681565b610e8682610616565b610e8f8161146f565b610e998383611564565b505050565b6000600160008473ffffffffffffffffffffffffffffffffffffffff1673ffffffffffffffffffffffffffffffffffffffff16815260200190815260200160002060008373ffffffffffffffffffffffffffffffffffffffff1673ffffffffffffffffffffffffffffffffffffffff16815260200190815260200160002054905092915050565b60007f01ffc9a7000000000000000000000000000000000000000000000000000000007bffffffffffffffffffffffffffffffffffffffffffffffffffffffff1916827bffffffffffffffffffffffffffffffffffffffffffffffffffffffff1916149050919050565b600033905090565b600073ffffffffffffffffffffffffffffffffffffffff168373ffffffffffffffffffffffffffffffffffffffff161415611007576040517f08c379a0000000000000000000000000000000000000000000000000000000008152600401610ffe90612398565b60405180910390fd5b600073ffffffffffffffffffffffffffffffffffffffff168273ffffffffffffffffffffffffffffffffffffffff161415611077576040517f08c379a000000000000000000000000000000000000000000000000000000000815260040161106e9061242a565b60405180910390fd5b80600160008573ffffffffffffffffffffffffffffffffffffffff1673ffffffffffffffffffffffffffffffffffffffff16815260200190815260200160002060008473ffffffffffffffffffffffffffffffffffffffff1673ffffffffffffffffffffffffffffffffffffffff168152602001908152602001600020819055508173ffffffffffffffffffffffffffffffffffffffff168373ffffffffffffffffffffffffffffffffffffffff167f8c5be1e5ebec7d5bd14f71427d1e84f3dd0314c0f7b2291e5b200ac8c7c3b925836040516111559190611d6c565b60405180910390a3505050565b600061116e8484610e9e565b90507fffffffffffffffffffffffffffffffffffffffffffffffffffffffffffffffff81146111e857818110156111da576040517f08c379a00000000000000000000000000000000000000000000000000000000081526004016111d190612496565b60405180910390fd5b6111e78484848403610f97565b5b50505050565b600073ffffffffffffffffffffffffffffffffffffffff168373ffffffffffffffffffffffffffffffffffffffff16141561125e576040517f08c379a000000000000000000000000000000000000000000000000000000000815260040161125590612528565b60405180910390fd5b600073ffffffffffffffffffffffffffffffffffffffff168273ffffffffffffffffffffffffffffffffffffffff1614156112ce576040517f08c379a00000000000000000000000000000000000000000000000000000000081526004016112c5906125ba565b60405180910390fd5b6112d983838361182b565b60008060008573ffffffffffffffffffffffffffffffffffffffff1673ffffffffffffffffffffffffffffffffffffffff1681526020019081526020016000205490508181101561135f576040517f08c379a00000000000000000000000000000000000000000000000000000000081526004016113569061264c565b60405180910390fd5b8181036000808673ffffffffffffffffffffffffffffffffffffffff1673ffffffffffffffffffffffffffffffffffffffff16815260200190815260200160002081905550816000808573ffffffffffffffffffffffffffffffffffffffff1673ffffffffffffffffffffffffffffffffffffffff16815260200190815260200160002060008282546113f2919061209a565b925050819055508273ffffffffffffffffffffffffffffffffffffffff168473ffffffffffffffffffffffffffffffffffffffff167fddf252ad1be2c89b69c2b068fc378daa952ba7f163c4a11628f55a4df523b3ef846040516114569190611d6c565b60405180910390a3611469848484611830565b50505050565b6114808161147b610f8f565b611835565b50565b61148d8282610cbb565b6115605760016005600084815260200190815260200160002060000160008373ffffffffffffffffffffffffffffffffffffffff1673ffffffffffffffffffffffffffffffffffffffff16815260200190815260200160002060006101000a81548160ff021916908315150217905550611505610f8f565b73ffffffffffffffffffffffffffffffffffffffff168173ffffffffffffffffffffffffffffffffffffffff16837f2f8788117e7eff1d82e926ec794901d17c78024a50270940304540a733656f0d60405160405180910390a45b5050565b61156e8282610cbb565b156116425760006005600084815260200190815260200160002060000160008373ffffffffffffffffffffffffffffffffffffffff1673ffffffffffffffffffffffffffffffffffffffff16815260200190815260200160002060006101000a81548160ff0219169083151502179055506115e7610f8f565b73ffffffffffffffffffffffffffffffffffffffff168173ffffffffffffffffffffffffffffffffffffffff16837ff6391f5c32d9c69d2a47ea670b442974b53935d1edc7fd64eb21e047a839171b60405160405180910390a45b5050565b600080670de0b6b3a764000061165a6105dd565b611664919061269b565b905060006103e882600261167891906126cc565b6002846116859190612859565b61168f91906128a4565b611699919061209a565b905080846116a7919061269b565b92505050919050565b600073ffffffffffffffffffffffffffffffffffffffff168273ffffffffffffffffffffffffffffffffffffffff161415611720576040517f08c379a000000000000000000000000000000000000000000000000000000000815260040161171790612924565b60405180910390fd5b61172c6000838361182b565b806002600082825461173e919061209a565b92505081905550806000808473ffffffffffffffffffffffffffffffffffffffff1673ffffffffffffffffffffffffffffffffffffffff1681526020019081526020016000206000828254611793919061209a565b925050819055508173ffffffffffffffffffffffffffffffffffffffff16600073ffffffffffffffffffffffffffffffffffffffff167fddf252ad1be2c89b69c2b068fc378daa952ba7f163c4a11628f55a4df523b3ef836040516117f89190611d6c565b60405180910390a361180c60008383611830565b5050565b60008060198361182091906126cc565b905080915050919050565b505050565b505050565b61183f8282610cbb565b6118ce576118648173ffffffffffffffffffffffffffffffffffffffff1660146118d2565b6118728360001c60206118d2565b604051602001611883929190612a18565b6040516020818303038152906040526040517f08c379a00000000000000000000000000000000000000000000000000000000081526004016118c59190611c67565b60405180910390fd5b5050565b6060600060028360026118e591906126cc565b6118ef919061209a565b67ffffffffffffffff81111561190857611907612a52565b5b6040519080825280601f01601f19166020018201604052801561193a5781602001600182028036833780820191505090505b5090507f30000000000000000000000000000000000000000000000000000000000000008160008151811061197257611971612a81565b5b60200101907effffffffffffffffffffffffffffffffffffffffffffffffffffffffffffff1916908160001a9053507f7800000000000000000000000000000000000000000000000000000000000000816001815181106119d6576119d5612a81565b5b60200101907effffffffffffffffffffffffffffffffffffffffffffffffffffffffffffff1916908160001a90535060006001846002611a1691906126cc565b611a20919061209a565b90505b6001811115611ac0577f3031323334353637383961626364656600000000000000000000000000000000600f861660108110611a6257611a61612a81565b5b1a60f81b828281518110611a7957611a78612a81565b5b60200101907effffffffffffffffffffffffffffffffffffffffffffffffffffffffffffff1916908160001a905350600485901c945080611ab990612ab0565b9050611a23565b5060008414611b04576040517f08c379a0000000000000000000000000000000000000000000000000000000008152600401611afb90612b26565b60405180910390fd5b8091505092915050565b600080fd5b60007fffffffff0000000000000000000000000000000000000000000000000000000082169050919050565b611b4881611b13565b8114611b5357600080fd5b50565b600081359050611b6581611b3f565b92915050565b600060208284031215611b8157611b80611b0e565b5b6000611b8f84828501611b56565b91505092915050565b60008115159050919050565b611bad81611b98565b82525050565b6000602082019050611bc86000830184611ba4565b92915050565b600081519050919050565b600082825260208201905092915050565b60005b83811015611c08578082015181840152602081019050611bed565b83811115611c17576000848401525b50505050565b6000601f19601f8301169050919050565b6000611c3982611bce565b611c438185611bd9565b9350611c53818560208601611bea565b611c5c81611c1d565b840191505092915050565b60006020820190508181036000830152611c818184611c2e565b905092915050565b600073ffffffffffffffffffffffffffffffffffffffff82169050919050565b6000611cb482611c89565b9050919050565b611cc481611ca9565b8114611ccf57600080fd5b50565b600081359050611ce181611cbb565b92915050565b6000819050919050565b611cfa81611ce7565b8114611d0557600080fd5b50565b600081359050611d1781611cf1565b92915050565b60008060408385031215611d3457611d33611b0e565b5b6000611d4285828601611cd2565b9250506020611d5385828601611d08565b9150509250929050565b611d6681611ce7565b82525050565b6000602082019050611d816000830184611d5d565b92915050565b600080600060608486031215611da057611d9f611b0e565b5b6000611dae86828701611cd2565b9350506020611dbf86828701611cd2565b9250506040611dd086828701611d08565b9150509250925092565b6000819050919050565b611ded81611dda565b8114611df857600080fd5b50565b600081359050611e0a81611de4565b92915050565b600060208284031215611e2657611e25611b0e565b5b6000611e3484828501611dfb565b91505092915050565b611e4681611dda565b82525050565b6000602082019050611e616000830184611e3d565b92915050565b60008060408385031215611e7e57611e7d611b0e565b5b6000611e8c85828601611dfb565b9250506020611e9d85828601611cd2565b9150509250929050565b600060ff82169050919050565b611ebd81611ea7565b82525050565b6000602082019050611ed86000830184611eb4565b92915050565b600060208284031215611ef457611ef3611b0e565b5b6000611f0284828501611d08565b91505092915050565b600060208284031215611f2157611f20611b0e565b5b6000611f2f84828501611cd2565b91505092915050565b60008060408385031215611f4f57611f4e611b0e565b5b6000611f5d85828601611cd2565b9250506020611f6e85828601611cd2565b9150509250929050565b7f4e487b7100000000000000000000000000000000000000000000000000000000600052602260045260246000fd5b60006002820490506001821680611fbf57607f821691505b60208210811415611fd357611fd2611f78565b5b50919050565b7f416363657373436f6e74726f6c3a2063616e206f6e6c792072656e6f756e636560008201527f20726f6c657320666f722073656c660000000000000000000000000000000000602082015250565b6000612035602f83611bd9565b915061204082611fd9565b604082019050919050565b6000602082019050818103600083015261206481612028565b9050919050565b7f4e487b7100000000000000000000000000000000000000000000000000000000600052601160045260246000fd5b60006120a582611ce7565b91506120b083611ce7565b9250827fffffffffffffffffffffffffffffffffffffffffffffffffffffffffffffffff038211156120e5576120e461206b565b5b828201905092915050565b6120f981611ca9565b82525050565b600060208201905061211460008301846120f0565b92915050565b60008151905061212981611cf1565b92915050565b60006020828403121561214557612144611b0e565b5b60006121538482850161211a565b91505092915050565b7f4e6f207469656e6520737566696369656e746520554453430000000000000000600082015250565b6000612192601883611bd9565b915061219d8261215c565b602082019050919050565b600060208201905081810360008301526121c181612185565b9050919050565b60006040820190506121dd60008301856120f0565b6121ea60208301846120f0565b9392505050565b7f4e6f207469656e6520737566696369656e7465207065726d69736f0000000000600082015250565b6000612227601b83611bd9565b9150612232826121f1565b602082019050919050565b600060208201905081810360008301526122568161221a565b9050919050565b600060608201905061227260008301866120f0565b61227f60208301856120f0565b61228c6040830184611d5d565b949350505050565b7f45524332303a2064656372656173656420616c6c6f77616e63652062656c6f7760008201527f207a65726f000000000000000000000000000000000000000000000000000000602082015250565b60006122f0602583611bd9565b91506122fb82612294565b604082019050919050565b6000602082019050818103600083015261231f816122e3565b9050919050565b7f45524332303a20617070726f76652066726f6d20746865207a65726f2061646460008201527f7265737300000000000000000000000000000000000000000000000000000000602082015250565b6000612382602483611bd9565b915061238d82612326565b604082019050919050565b600060208201905081810360008301526123b181612375565b9050919050565b7f45524332303a20617070726f766520746f20746865207a65726f20616464726560008201527f7373000000000000000000000000000000000000000000000000000000000000602082015250565b6000612414602283611bd9565b915061241f826123b8565b604082019050919050565b6000602082019050818103600083015261244381612407565b9050919050565b7f45524332303a20696e73756666696369656e7420616c6c6f77616e6365000000600082015250565b6000612480601d83611bd9565b915061248b8261244a565b602082019050919050565b600060208201905081810360008301526124af81612473565b9050919050565b7f45524332303a207472616e736665722066726f6d20746865207a65726f20616460008201527f6472657373000000000000000000000000000000000000000000000000000000602082015250565b6000612512602583611bd9565b915061251d826124b6565b604082019050919050565b6000602082019050818103600083015261254181612505565b9050919050565b7f45524332303a207472616e7366657220746f20746865207a65726f206164647260008201527f6573730000000000000000000000000000000000000000000000000000000000602082015250565b60006125a4602383611bd9565b91506125af82612548565b604082019050919050565b600060208201905081810360008301526125d381612597565b9050919050565b7f45524332303a207472616e7366657220616d6f756e742065786365656473206260008201527f616c616e63650000000000000000000000000000000000000000000000000000602082015250565b6000612636602683611bd9565b9150612641826125da565b604082019050919050565b6000602082019050818103600083015261266581612629565b9050919050565b7f4e487b7100000000000000000000000000000000000000000000000000000000600052601260045260246000fd5b60006126a682611ce7565b91506126b183611ce7565b9250826126c1576126c061266c565b5b828204905092915050565b60006126d782611ce7565b91506126e283611ce7565b9250817fffffffffffffffffffffffffffffffffffffffffffffffffffffffffffffffff048311821515161561271b5761271a61206b565b5b828202905092915050565b60008160011c9050919050565b6000808291508390505b600185111561277d578086048111156127595761275861206b565b5b60018516156127685780820291505b808102905061277685612726565b945061273d565b94509492505050565b6000826127965760019050612852565b816127a45760009050612852565b81600181146127ba57600281146127c4576127f3565b6001915050612852565b60ff8411156127d6576127d561206b565b5b8360020a9150848211156127ed576127ec61206b565b5b50612852565b5060208310610133831016604e8410600b84101617156128285782820a9050838111156128235761282261206b565b5b612852565b6128358484846001612733565b9250905081840481111561284c5761284b61206b565b5b81810290505b9392505050565b600061286482611ce7565b915061286f83611ea7565b925061289c7fffffffffffffffffffffffffffffffffffffffffffffffffffffffffffffffff8484612786565b905092915050565b60006128af82611ce7565b91506128ba83611ce7565b9250828210156128cd576128cc61206b565b5b828203905092915050565b7f45524332303a206d696e7420746f20746865207a65726f206164647265737300600082015250565b600061290e601f83611bd9565b9150612919826128d8565b602082019050919050565b6000602082019050818103600083015261293d81612901565b9050919050565b600081905092915050565b7f416363657373436f6e74726f6c3a206163636f756e7420000000000000000000600082015250565b6000612985601783612944565b91506129908261294f565b601782019050919050565b60006129a682611bce565b6129b08185612944565b93506129c0818560208601611bea565b80840191505092915050565b7f206973206d697373696e6720726f6c6520000000000000000000000000000000600082015250565b6000612a02601183612944565b9150612a0d826129cc565b601182019050919050565b6000612a2382612978565b9150612a2f828561299b565b9150612a3a826129f5565b9150612a46828461299b565b91508190509392505050565b7f4e487b7100000000000000000000000000000000000000000000000000000000600052604160045260246000fd5b7f4e487b7100000000000000000000000000000000000000000000000000000000600052603260045260246000fd5b6000612abb82611ce7565b91506000821415612acf57612ace61206b565b5b600182039050919050565b7f537472696e67733a20686578206c656e67746820696e73756666696369656e74600082015250565b6000612b10602083611bd9565b9150612b1b82612ada565b602082019050919050565b60006020820190508181036000830152612b3f81612b03565b905091905056fea26469706673582212201f0f360945ba4bef3e5c3117820f35fe48edd290a9addd42716978c3e5ed26e164736f6c63430008090033",
  "linkReferences": {},
  "deployedLinkReferences": {}
}