{
  "_format": "hh-sol-artifact-1",
  "contractName": "MiPrimerNft",
  "sourceName": "contracts/MiPrimerNft.sol",
  "abi": [
    {
      "inputs": [],
      "stateMutability": "nonpayable",
      "type": "constructor"
    },
    {
      "anonymous": false,
      "inputs": [
        {
          "indexed": true,
          "internalType": "address",
          "name": "owner",
          "type": "address"
        },
        {
          "indexed": true,
          "internalType": "address",
          "name": "approved",
          "type": "address"
        },
        {
          "indexed": true,
          "internalType": "uint256",
          "name": "tokenId",
          "type": "uint256"
        }
      ],
      "name": "Approval",
      "type": "event"
    },
    {
      "anonymous": false,
      "inputs": [
        {
          "indexed": true,
          "internalType": "address",
          "name": "owner",
          "type": "address"
        },
        {
          "indexed": true,
          "internalType": "address",
          "name": "operator",
          "type": "address"
        },
        {
          "indexed": false,
          "internalType": "bool",
          "name": "approved",
          "type": "bool"
        }
      ],
      "name": "ApprovalForAll",
      "type": "event"
    },
    {
      "anonymous": false,
      "inputs": [
        {
          "indexed": false,
          "internalType": "address",
          "name": "account",
          "type": "address"
        }
      ],
      "name": "Paused",
      "type": "event"
    },
    {
      "anonymous": false,
      "inputs": [
        {
          "indexed": true,
          "internalType": "bytes32",
          "name": "role",
          "type": "bytes32"
        },
        {
          "indexed": true,
          "internalType": "bytes32",
          "name": "previousAdminRole",
          "type": "bytes32"
        },
        {
          "indexed": true,
          "internalType": "bytes32",
          "name": "newAdminRole",
          "type": "bytes32"
        }
      ],
      "name": "RoleAdminChanged",
      "type": "event"
    },
    {
      "anonymous": false,
      "inputs": [
        {
          "indexed": true,
          "internalType": "bytes32",
          "name": "role",
          "type": "bytes32"
        },
        {
          "indexed": true,
          "internalType": "address",
          "name": "account",
          "type": "address"
        },
        {
          "indexed": true,
          "internalType": "address",
          "name": "sender",
          "type": "address"
        }
      ],
      "name": "RoleGranted",
      "type": "event"
    },
    {
      "anonymous": false,
      "inputs": [
        {
          "indexed": true,
          "internalType": "bytes32",
          "name": "role",
          "type": "bytes32"
        },
        {
          "indexed": true,
          "internalType": "address",
          "name": "account",
          "type": "address"
        },
        {
          "indexed": true,
          "internalType": "address",
          "name": "sender",
          "type": "address"
        }
      ],
      "name": "RoleRevoked",
      "type": "event"
    },
    {
      "anonymous": false,
      "inputs": [
        {
          "indexed": true,
          "internalType": "address",
          "name": "from",
          "type": "address"
        },
        {
          "indexed": true,
          "internalType": "address",
          "name": "to",
          "type": "address"
        },
        {
          "indexed": true,
          "internalType": "uint256",
          "name": "tokenId",
          "type": "uint256"
        }
      ],
      "name": "Transfer",
      "type": "event"
    },
    {
      "anonymous": false,
      "inputs": [
        {
          "indexed": false,
          "internalType": "address",
          "name": "account",
          "type": "address"
        }
      ],
      "name": "Unpaused",
      "type": "event"
    },
    {
      "inputs": [],
      "name": "DEFAULT_ADMIN_ROLE",
      "outputs": [
        {
          "internalType": "bytes32",
          "name": "",
          "type": "bytes32"
        }
      ],
      "stateMutability": "view",
      "type": "function"
    },
    {
      "inputs": [],
      "name": "MINTER_ROLE",
      "outputs": [
        {
          "internalType": "bytes32",
          "name": "",
          "type": "bytes32"
        }
      ],
      "stateMutability": "view",
      "type": "function"
    },
    {
      "inputs": [],
      "name": "PAUSER_ROLE",
      "outputs": [
        {
          "internalType": "bytes32",
          "name": "",
          "type": "bytes32"
        }
      ],
      "stateMutability": "view",
      "type": "function"
    },
    {
      "inputs": [
        {
          "internalType": "address",
          "name": "to",
          "type": "address"
        },
        {
          "internalType": "uint256",
          "name": "tokenId",
          "type": "uint256"
        }
      ],
      "name": "approve",
      "outputs": [],
      "stateMutability": "nonpayable",
      "type": "function"
    },
    {
      "inputs": [
        {
          "internalType": "address",
          "name": "owner",
          "type": "address"
        }
      ],
      "name": "balanceOf",
      "outputs": [
        {
          "internalType": "uint256",
          "name": "",
          "type": "uint256"
        }
      ],
      "stateMutability": "view",
      "type": "function"
    },
    {
      "inputs": [
        {
          "internalType": "uint256",
          "name": "tokenId",
          "type": "uint256"
        }
      ],
      "name": "burn",
      "outputs": [],
      "stateMutability": "nonpayable",
      "type": "function"
    },
    {
      "inputs": [
        {
          "internalType": "uint256",
          "name": "tokenId",
          "type": "uint256"
        }
      ],
      "name": "getApproved",
      "outputs": [
        {
          "internalType": "address",
          "name": "",
          "type": "address"
        }
      ],
      "stateMutability": "view",
      "type": "function"
    },
    {
      "inputs": [
        {
          "internalType": "bytes32",
          "name": "role",
          "type": "bytes32"
        }
      ],
      "name": "getRoleAdmin",
      "outputs": [
        {
          "internalType": "bytes32",
          "name": "",
          "type": "bytes32"
        }
      ],
      "stateMutability": "view",
      "type": "function"
    },
    {
      "inputs": [
        {
          "internalType": "bytes32",
          "name": "role",
          "type": "bytes32"
        },
        {
          "internalType": "address",
          "name": "account",
          "type": "address"
        }
      ],
      "name": "grantRole",
      "outputs": [],
      "stateMutability": "nonpayable",
      "type": "function"
    },
    {
      "inputs": [
        {
          "internalType": "bytes32",
          "name": "role",
          "type": "bytes32"
        },
        {
          "internalType": "address",
          "name": "account",
          "type": "address"
        }
      ],
      "name": "hasRole",
      "outputs": [
        {
          "internalType": "bool",
          "name": "",
          "type": "bool"
        }
      ],
      "stateMutability": "view",
      "type": "function"
    },
    {
      "inputs": [
        {
          "internalType": "address",
          "name": "owner",
          "type": "address"
        },
        {
          "internalType": "address",
          "name": "operator",
          "type": "address"
        }
      ],
      "name": "isApprovedForAll",
      "outputs": [
        {
          "internalType": "bool",
          "name": "",
          "type": "bool"
        }
      ],
      "stateMutability": "view",
      "type": "function"
    },
    {
      "inputs": [],
      "name": "name",
      "outputs": [
        {
          "internalType": "string",
          "name": "",
          "type": "string"
        }
      ],
      "stateMutability": "view",
      "type": "function"
    },
    {
      "inputs": [
        {
          "internalType": "uint256",
          "name": "tokenId",
          "type": "uint256"
        }
      ],
      "name": "ownerOf",
      "outputs": [
        {
          "internalType": "address",
          "name": "",
          "type": "address"
        }
      ],
      "stateMutability": "view",
      "type": "function"
    },
    {
      "inputs": [],
      "name": "pause",
      "outputs": [],
      "stateMutability": "nonpayable",
      "type": "function"
    },
    {
      "inputs": [],
      "name": "paused",
      "outputs": [
        {
          "internalType": "bool",
          "name": "",
          "type": "bool"
        }
      ],
      "stateMutability": "view",
      "type": "function"
    },
    {
      "inputs": [
        {
          "internalType": "bytes32",
          "name": "role",
          "type": "bytes32"
        },
        {
          "internalType": "address",
          "name": "account",
          "type": "address"
        }
      ],
      "name": "renounceRole",
      "outputs": [],
      "stateMutability": "nonpayable",
      "type": "function"
    },
    {
      "inputs": [
        {
          "internalType": "bytes32",
          "name": "role",
          "type": "bytes32"
        },
        {
          "internalType": "address",
          "name": "account",
          "type": "address"
        }
      ],
      "name": "revokeRole",
      "outputs": [],
      "stateMutability": "nonpayable",
      "type": "function"
    },
    {
      "inputs": [
        {
          "internalType": "address",
          "name": "to",
          "type": "address"
        }
      ],
      "name": "safeMint",
      "outputs": [],
      "stateMutability": "nonpayable",
      "type": "function"
    },
    {
      "inputs": [
        {
          "internalType": "address",
          "name": "from",
          "type": "address"
        },
        {
          "internalType": "address",
          "name": "to",
          "type": "address"
        },
        {
          "internalType": "uint256",
          "name": "tokenId",
          "type": "uint256"
        }
      ],
      "name": "safeTransferFrom",
      "outputs": [],
      "stateMutability": "nonpayable",
      "type": "function"
    },
    {
      "inputs": [
        {
          "internalType": "address",
          "name": "from",
          "type": "address"
        },
        {
          "internalType": "address",
          "name": "to",
          "type": "address"
        },
        {
          "internalType": "uint256",
          "name": "tokenId",
          "type": "uint256"
        },
        {
          "internalType": "bytes",
          "name": "data",
          "type": "bytes"
        }
      ],
      "name": "safeTransferFrom",
      "outputs": [],
      "stateMutability": "nonpayable",
      "type": "function"
    },
    {
      "inputs": [
        {
          "internalType": "address",
          "name": "operator",
          "type": "address"
        },
        {
          "internalType": "bool",
          "name": "approved",
          "type": "bool"
        }
      ],
      "name": "setApprovalForAll",
      "outputs": [],
      "stateMutability": "nonpayable",
      "type": "function"
    },
    {
      "inputs": [
        {
          "internalType": "bytes4",
          "name": "interfaceId",
          "type": "bytes4"
        }
      ],
      "name": "supportsInterface",
      "outputs": [
        {
          "internalType": "bool",
          "name": "",
          "type": "bool"
        }
      ],
      "stateMutability": "view",
      "type": "function"
    },
    {
      "inputs": [],
      "name": "symbol",
      "outputs": [
        {
          "internalType": "string",
          "name": "",
          "type": "string"
        }
      ],
      "stateMutability": "view",
      "type": "function"
    },
    {
      "inputs": [
        {
          "internalType": "uint256",
          "name": "tokenId",
          "type": "uint256"
        }
      ],
      "name": "tokenURI",
      "outputs": [
        {
          "internalType": "string",
          "name": "",
          "type": "string"
        }
      ],
      "stateMutability": "view",
      "type": "function"
    },
    {
      "inputs": [
        {
          "internalType": "address",
          "name": "from",
          "type": "address"
        },
        {
          "internalType": "address",
          "name": "to",
          "type": "address"
        },
        {
          "internalType": "uint256",
          "name": "tokenId",
          "type": "uint256"
        }
      ],
      "name": "transferFrom",
      "outputs": [],
      "stateMutability": "nonpayable",
      "type": "function"
    },
    {
      "inputs": [],
      "name": "unpause",
      "outputs": [],
      "stateMutability": "nonpayable",
      "type": "function"
    }
  ],
  "bytecode": "0x60806040523480156200001157600080fd5b506040518060400160405280600b81526020017f4d695072696d65724e66740000000000000000000000000000000000000000008152506040518060400160405280600681526020017f4d50524e46540000000000000000000000000000000000000000000000000000815250816000908051906020019062000096929190620002b1565b508060019080519060200190620000af929190620002b1565b5050506000600660006101000a81548160ff021916908315150217905550620000e26000801b336200014c60201b60201c565b620001147f65d7a28e3265b37a6474929f336521b332c1681b933f6cb9f3376673440d862a336200014c60201b60201c565b620001467f9f2df0fed2c77648de5860a4cc508cd0818c85b8b8a1ab4ceeef8d981c8956a6336200014c60201b60201c565b620003c6565b6200015e82826200023e60201b60201c565b6200023a5760016007600084815260200190815260200160002060000160008373ffffffffffffffffffffffffffffffffffffffff1673ffffffffffffffffffffffffffffffffffffffff16815260200190815260200160002060006101000a81548160ff021916908315150217905550620001df620002a960201b60201c565b73ffffffffffffffffffffffffffffffffffffffff168173ffffffffffffffffffffffffffffffffffffffff16837f2f8788117e7eff1d82e926ec794901d17c78024a50270940304540a733656f0d60405160405180910390a45b5050565b60006007600084815260200190815260200160002060000160008373ffffffffffffffffffffffffffffffffffffffff1673ffffffffffffffffffffffffffffffffffffffff16815260200190815260200160002060009054906101000a900460ff16905092915050565b600033905090565b828054620002bf9062000390565b90600052602060002090601f016020900481019282620002e357600085556200032f565b82601f10620002fe57805160ff19168380011785556200032f565b828001600101855582156200032f579182015b828111156200032e57825182559160200191906001019062000311565b5b5090506200033e919062000342565b5090565b5b808211156200035d57600081600090555060010162000343565b5090565b7f4e487b7100000000000000000000000000000000000000000000000000000000600052602260045260246000fd5b60006002820490506001821680620003a957607f821691505b60208210811415620003c057620003bf62000361565b5b50919050565b6135eb80620003d66000396000f3fe608060405234801561001057600080fd5b506004361061018e5760003560e01c80636352211e116100de578063a22cb46511610097578063d539139311610071578063d53913931461046b578063d547741f14610489578063e63ab1e9146104a5578063e985e9c5146104c35761018e565b8063a22cb46514610403578063b88d4fde1461041f578063c87b56dd1461043b5761018e565b80636352211e1461032d57806370a082311461035d5780638456cb591461038d57806391d148541461039757806395d89b41146103c7578063a217fddf146103e55761018e565b80632f2ff15d1161014b57806340d097c31161012557806340d097c3146102bb57806342842e0e146102d757806342966c68146102f35780635c975abb1461030f5761018e565b80632f2ff15d1461027957806336568abe146102955780633f4ba83a146102b15761018e565b806301ffc9a71461019357806306fdde03146101c3578063081812fc146101e1578063095ea7b31461021157806323b872dd1461022d578063248a9ca314610249575b600080fd5b6101ad60048036038101906101a8919061231b565b6104f3565b6040516101ba9190612363565b60405180910390f35b6101cb610505565b6040516101d89190612417565b60405180910390f35b6101fb60048036038101906101f6919061246f565b610597565b60405161020891906124dd565b60405180910390f35b61022b60048036038101906102269190612524565b6105dd565b005b61024760048036038101906102429190612564565b6106f5565b005b610263600480360381019061025e91906125ed565b610755565b6040516102709190612629565b60405180910390f35b610293600480360381019061028e9190612644565b610775565b005b6102af60048036038101906102aa9190612644565b610796565b005b6102b9610819565b005b6102d560048036038101906102d09190612684565b61084e565b005b6102f160048036038101906102ec9190612564565b61089f565b005b61030d6004803603810190610308919061246f565b6108bf565b005b61031761091b565b6040516103249190612363565b60405180910390f35b6103476004803603810190610342919061246f565b610932565b60405161035491906124dd565b60405180910390f35b61037760048036038101906103729190612684565b6109e4565b60405161038491906126c0565b60405180910390f35b610395610a9c565b005b6103b160048036038101906103ac9190612644565b610ad1565b6040516103be9190612363565b60405180910390f35b6103cf610b3c565b6040516103dc9190612417565b60405180910390f35b6103ed610bce565b6040516103fa9190612629565b60405180910390f35b61041d60048036038101906104189190612707565b610bd5565b005b6104396004803603810190610434919061287c565b610beb565b005b6104556004803603810190610450919061246f565b610c4d565b6040516104629190612417565b60405180910390f35b610473610cb5565b6040516104809190612629565b60405180910390f35b6104a3600480360381019061049e9190612644565b610cd9565b005b6104ad610cfa565b6040516104ba9190612629565b60405180910390f35b6104dd60048036038101906104d891906128ff565b610d1e565b6040516104ea9190612363565b60405180910390f35b60006104fe82610db2565b9050919050565b6060600080546105149061296e565b80601f01602080910402602001604051908101604052809291908181526020018280546105409061296e565b801561058d5780601f106105625761010080835404028352916020019161058d565b820191906000526020600020905b81548152906001019060200180831161057057829003601f168201915b5050505050905090565b60006105a282610e2c565b6004600083815260200190815260200160002060009054906101000a900473ffffffffffffffffffffffffffffffffffffffff169050919050565b60006105e882610932565b90508073ffffffffffffffffffffffffffffffffffffffff168373ffffffffffffffffffffffffffffffffffffffff161415610659576040517f08c379a000000000000000000000000000000000000000000000000000000000815260040161065090612a12565b60405180910390fd5b8073ffffffffffffffffffffffffffffffffffffffff16610678610e77565b73ffffffffffffffffffffffffffffffffffffffff1614806106a757506106a6816106a1610e77565b610d1e565b5b6106e6576040517f08c379a00000000000000000000000000000000000000000000000000000000081526004016106dd90612aa4565b60405180910390fd5b6106f08383610e7f565b505050565b610706610700610e77565b82610f38565b610745576040517f08c379a000000000000000000000000000000000000000000000000000000000815260040161073c90612b36565b60405180910390fd5b610750838383610fcd565b505050565b600060076000838152602001908152602001600020600101549050919050565b61077e82610755565b61078781611234565b6107918383611248565b505050565b61079e610e77565b73ffffffffffffffffffffffffffffffffffffffff168173ffffffffffffffffffffffffffffffffffffffff161461080b576040517f08c379a000000000000000000000000000000000000000000000000000000000815260040161080290612bc8565b60405180910390fd5b6108158282611329565b5050565b7f65d7a28e3265b37a6474929f336521b332c1681b933f6cb9f3376673440d862a61084381611234565b61084b61140b565b50565b7f9f2df0fed2c77648de5860a4cc508cd0818c85b8b8a1ab4ceeef8d981c8956a661087881611234565b6000610884600861146e565b9050610890600861147c565b61089a8382611492565b505050565b6108ba83838360405180602001604052806000815250610beb565b505050565b6108d06108ca610e77565b82610f38565b61090f576040517f08c379a000000000000000000000000000000000000000000000000000000000815260040161090690612b36565b60405180910390fd5b610918816114b0565b50565b6000600660009054906101000a900460ff16905090565b6000806002600084815260200190815260200160002060009054906101000a900473ffffffffffffffffffffffffffffffffffffffff169050600073ffffffffffffffffffffffffffffffffffffffff168173ffffffffffffffffffffffffffffffffffffffff1614156109db576040517f08c379a00000000000000000000000000000000000000000000000000000000081526004016109d290612c34565b60405180910390fd5b80915050919050565b60008073ffffffffffffffffffffffffffffffffffffffff168273ffffffffffffffffffffffffffffffffffffffff161415610a55576040517f08c379a0000000000000000000000000000000000000000000000000000000008152600401610a4c90612cc6565b60405180910390fd5b600360008373ffffffffffffffffffffffffffffffffffffffff1673ffffffffffffffffffffffffffffffffffffffff168152602001908152602001600020549050919050565b7f65d7a28e3265b37a6474929f336521b332c1681b933f6cb9f3376673440d862a610ac681611234565b610ace6115cd565b50565b60006007600084815260200190815260200160002060000160008373ffffffffffffffffffffffffffffffffffffffff1673ffffffffffffffffffffffffffffffffffffffff16815260200190815260200160002060009054906101000a900460ff16905092915050565b606060018054610b4b9061296e565b80601f0160208091040260200160405190810160405280929190818152602001828054610b779061296e565b8015610bc45780601f10610b9957610100808354040283529160200191610bc4565b820191906000526020600020905b815481529060010190602001808311610ba757829003601f168201915b5050505050905090565b6000801b81565b610be7610be0610e77565b8383611630565b5050565b610bfc610bf6610e77565b83610f38565b610c3b576040517f08c379a0000000000000000000000000000000000000000000000000000000008152600401610c3290612b36565b60405180910390fd5b610c478484848461179d565b50505050565b6060610c5882610e2c565b6000610c626117f9565b90506000815111610c825760405180602001604052806000815250610cad565b80610c8c84611819565b604051602001610c9d929190612d22565b6040516020818303038152906040525b915050919050565b7f9f2df0fed2c77648de5860a4cc508cd0818c85b8b8a1ab4ceeef8d981c8956a681565b610ce282610755565b610ceb81611234565b610cf58383611329565b505050565b7f65d7a28e3265b37a6474929f336521b332c1681b933f6cb9f3376673440d862a81565b6000600560008473ffffffffffffffffffffffffffffffffffffffff1673ffffffffffffffffffffffffffffffffffffffff16815260200190815260200160002060008373ffffffffffffffffffffffffffffffffffffffff1673ffffffffffffffffffffffffffffffffffffffff16815260200190815260200160002060009054906101000a900460ff16905092915050565b60007f7965db0b000000000000000000000000000000000000000000000000000000007bffffffffffffffffffffffffffffffffffffffffffffffffffffffff1916827bffffffffffffffffffffffffffffffffffffffffffffffffffffffff19161480610e255750610e248261197a565b5b9050919050565b610e3581611a5c565b610e74576040517f08c379a0000000000000000000000000000000000000000000000000000000008152600401610e6b90612c34565b60405180910390fd5b50565b600033905090565b816004600083815260200190815260200160002060006101000a81548173ffffffffffffffffffffffffffffffffffffffff021916908373ffffffffffffffffffffffffffffffffffffffff160217905550808273ffffffffffffffffffffffffffffffffffffffff16610ef283610932565b73ffffffffffffffffffffffffffffffffffffffff167f8c5be1e5ebec7d5bd14f71427d1e84f3dd0314c0f7b2291e5b200ac8c7c3b92560405160405180910390a45050565b600080610f4483610932565b90508073ffffffffffffffffffffffffffffffffffffffff168473ffffffffffffffffffffffffffffffffffffffff161480610f865750610f858185610d1e565b5b80610fc457508373ffffffffffffffffffffffffffffffffffffffff16610fac84610597565b73ffffffffffffffffffffffffffffffffffffffff16145b91505092915050565b8273ffffffffffffffffffffffffffffffffffffffff16610fed82610932565b73ffffffffffffffffffffffffffffffffffffffff1614611043576040517f08c379a000000000000000000000000000000000000000000000000000000000815260040161103a90612db8565b60405180910390fd5b600073ffffffffffffffffffffffffffffffffffffffff168273ffffffffffffffffffffffffffffffffffffffff1614156110b3576040517f08c379a00000000000000000000000000000000000000000000000000000000081526004016110aa90612e4a565b60405180910390fd5b6110be838383611ac8565b6110c9600082610e7f565b6001600360008573ffffffffffffffffffffffffffffffffffffffff1673ffffffffffffffffffffffffffffffffffffffff16815260200190815260200160002060008282546111199190612e99565b925050819055506001600360008473ffffffffffffffffffffffffffffffffffffffff1673ffffffffffffffffffffffffffffffffffffffff16815260200190815260200160002060008282546111709190612ecd565b92505081905550816002600083815260200190815260200160002060006101000a81548173ffffffffffffffffffffffffffffffffffffffff021916908373ffffffffffffffffffffffffffffffffffffffff160217905550808273ffffffffffffffffffffffffffffffffffffffff168473ffffffffffffffffffffffffffffffffffffffff167fddf252ad1be2c89b69c2b068fc378daa952ba7f163c4a11628f55a4df523b3ef60405160405180910390a461122f838383611ae0565b505050565b61124581611240610e77565b611ae5565b50565b6112528282610ad1565b6113255760016007600084815260200190815260200160002060000160008373ffffffffffffffffffffffffffffffffffffffff1673ffffffffffffffffffffffffffffffffffffffff16815260200190815260200160002060006101000a81548160ff0219169083151502179055506112ca610e77565b73ffffffffffffffffffffffffffffffffffffffff168173ffffffffffffffffffffffffffffffffffffffff16837f2f8788117e7eff1d82e926ec794901d17c78024a50270940304540a733656f0d60405160405180910390a45b5050565b6113338282610ad1565b156114075760006007600084815260200190815260200160002060000160008373ffffffffffffffffffffffffffffffffffffffff1673ffffffffffffffffffffffffffffffffffffffff16815260200190815260200160002060006101000a81548160ff0219169083151502179055506113ac610e77565b73ffffffffffffffffffffffffffffffffffffffff168173ffffffffffffffffffffffffffffffffffffffff16837ff6391f5c32d9c69d2a47ea670b442974b53935d1edc7fd64eb21e047a839171b60405160405180910390a45b5050565b611413611b82565b6000600660006101000a81548160ff0219169083151502179055507f5db9ee0a495bf2e6ff9c91a7834c1ba4fdd244a5e8aa4e537bd38aeae4b073aa611457610e77565b60405161146491906124dd565b60405180910390a1565b600081600001549050919050565b6001816000016000828254019250508190555050565b6114ac828260405180602001604052806000815250611bcb565b5050565b60006114bb82610932565b90506114c981600084611ac8565b6114d4600083610e7f565b6001600360008373ffffffffffffffffffffffffffffffffffffffff1673ffffffffffffffffffffffffffffffffffffffff16815260200190815260200160002060008282546115249190612e99565b925050819055506002600083815260200190815260200160002060006101000a81549073ffffffffffffffffffffffffffffffffffffffff021916905581600073ffffffffffffffffffffffffffffffffffffffff168273ffffffffffffffffffffffffffffffffffffffff167fddf252ad1be2c89b69c2b068fc378daa952ba7f163c4a11628f55a4df523b3ef60405160405180910390a46115c981600084611ae0565b5050565b6115d5611c26565b6001600660006101000a81548160ff0219169083151502179055507f62e78cea01bee320cd4e420270b5ea74000d11b0c9f74754ebdbfc544b05a258611619610e77565b60405161162691906124dd565b60405180910390a1565b8173ffffffffffffffffffffffffffffffffffffffff168373ffffffffffffffffffffffffffffffffffffffff16141561169f576040517f08c379a000000000000000000000000000000000000000000000000000000000815260040161169690612f6f565b60405180910390fd5b80600560008573ffffffffffffffffffffffffffffffffffffffff1673ffffffffffffffffffffffffffffffffffffffff16815260200190815260200160002060008473ffffffffffffffffffffffffffffffffffffffff1673ffffffffffffffffffffffffffffffffffffffff16815260200190815260200160002060006101000a81548160ff0219169083151502179055508173ffffffffffffffffffffffffffffffffffffffff168373ffffffffffffffffffffffffffffffffffffffff167f17307eab39ab6107e8899845ad3d59bd9653f200f220920489ca2b5937696c31836040516117909190612363565b60405180910390a3505050565b6117a8848484610fcd565b6117b484848484611c70565b6117f3576040517f08c379a00000000000000000000000000000000000000000000000000000000081526004016117ea90613001565b60405180910390fd5b50505050565b606060405180606001604052806036815260200161358060369139905090565b60606000821415611861576040518060400160405280600181526020017f30000000000000000000000000000000000000000000000000000000000000008152509050611975565b600082905060005b6000821461189357808061187c90613021565b915050600a8261188c9190613099565b9150611869565b60008167ffffffffffffffff8111156118af576118ae612751565b5b6040519080825280601f01601f1916602001820160405280156118e15781602001600182028036833780820191505090505b5090505b6000851461196e576001826118fa9190612e99565b9150600a8561190991906130ca565b60306119159190612ecd565b60f81b81838151811061192b5761192a6130fb565b5b60200101907effffffffffffffffffffffffffffffffffffffffffffffffffffffffffffff1916908160001a905350600a856119679190613099565b94506118e5565b8093505050505b919050565b60007f80ac58cd000000000000000000000000000000000000000000000000000000007bffffffffffffffffffffffffffffffffffffffffffffffffffffffff1916827bffffffffffffffffffffffffffffffffffffffffffffffffffffffff19161480611a4557507f5b5e139f000000000000000000000000000000000000000000000000000000007bffffffffffffffffffffffffffffffffffffffffffffffffffffffff1916827bffffffffffffffffffffffffffffffffffffffffffffffffffffffff1916145b80611a555750611a5482611e07565b5b9050919050565b60008073ffffffffffffffffffffffffffffffffffffffff166002600084815260200190815260200160002060009054906101000a900473ffffffffffffffffffffffffffffffffffffffff1673ffffffffffffffffffffffffffffffffffffffff1614159050919050565b611ad0611c26565b611adb838383611e71565b505050565b505050565b611aef8282610ad1565b611b7e57611b148173ffffffffffffffffffffffffffffffffffffffff166014611e76565b611b228360001c6020611e76565b604051602001611b339291906131c2565b6040516020818303038152906040526040517f08c379a0000000000000000000000000000000000000000000000000000000008152600401611b759190612417565b60405180910390fd5b5050565b611b8a61091b565b611bc9576040517f08c379a0000000000000000000000000000000000000000000000000000000008152600401611bc090613248565b60405180910390fd5b565b611bd583836120b2565b611be26000848484611c70565b611c21576040517f08c379a0000000000000000000000000000000000000000000000000000000008152600401611c1890613001565b60405180910390fd5b505050565b611c2e61091b565b15611c6e576040517f08c379a0000000000000000000000000000000000000000000000000000000008152600401611c65906132b4565b60405180910390fd5b565b6000611c918473ffffffffffffffffffffffffffffffffffffffff1661228c565b15611dfa578373ffffffffffffffffffffffffffffffffffffffff1663150b7a02611cba610e77565b8786866040518563ffffffff1660e01b8152600401611cdc9493929190613329565b602060405180830381600087803b158015611cf657600080fd5b505af1925050508015611d2757506040513d601f19601f82011682018060405250810190611d24919061338a565b60015b611daa573d8060008114611d57576040519150601f19603f3d011682016040523d82523d6000602084013e611d5c565b606091505b50600081511415611da2576040517f08c379a0000000000000000000000000000000000000000000000000000000008152600401611d9990613001565b60405180910390fd5b805181602001fd5b63150b7a0260e01b7bffffffffffffffffffffffffffffffffffffffffffffffffffffffff1916817bffffffffffffffffffffffffffffffffffffffffffffffffffffffff191614915050611dff565b600190505b949350505050565b60007f01ffc9a7000000000000000000000000000000000000000000000000000000007bffffffffffffffffffffffffffffffffffffffffffffffffffffffff1916827bffffffffffffffffffffffffffffffffffffffffffffffffffffffff1916149050919050565b505050565b606060006002836002611e8991906133b7565b611e939190612ecd565b67ffffffffffffffff811115611eac57611eab612751565b5b6040519080825280601f01601f191660200182016040528015611ede5781602001600182028036833780820191505090505b5090507f300000000000000000000000000000000000000000000000000000000000000081600081518110611f1657611f156130fb565b5b60200101907effffffffffffffffffffffffffffffffffffffffffffffffffffffffffffff1916908160001a9053507f780000000000000000000000000000000000000000000000000000000000000081600181518110611f7a57611f796130fb565b5b60200101907effffffffffffffffffffffffffffffffffffffffffffffffffffffffffffff1916908160001a90535060006001846002611fba91906133b7565b611fc49190612ecd565b90505b6001811115612064577f3031323334353637383961626364656600000000000000000000000000000000600f861660108110612006576120056130fb565b5b1a60f81b82828151811061201d5761201c6130fb565b5b60200101907effffffffffffffffffffffffffffffffffffffffffffffffffffffffffffff1916908160001a905350600485901c94508061205d90613411565b9050611fc7565b50600084146120a8576040517f08c379a000000000000000000000000000000000000000000000000000000000815260040161209f90613487565b60405180910390fd5b8091505092915050565b600073ffffffffffffffffffffffffffffffffffffffff168273ffffffffffffffffffffffffffffffffffffffff161415612122576040517f08c379a0000000000000000000000000000000000000000000000000000000008152600401612119906134f3565b60405180910390fd5b61212b81611a5c565b1561216b576040517f08c379a00000000000000000000000000000000000000000000000000000000081526004016121629061355f565b60405180910390fd5b61217760008383611ac8565b6001600360008473ffffffffffffffffffffffffffffffffffffffff1673ffffffffffffffffffffffffffffffffffffffff16815260200190815260200160002060008282546121c79190612ecd565b92505081905550816002600083815260200190815260200160002060006101000a81548173ffffffffffffffffffffffffffffffffffffffff021916908373ffffffffffffffffffffffffffffffffffffffff160217905550808273ffffffffffffffffffffffffffffffffffffffff16600073ffffffffffffffffffffffffffffffffffffffff167fddf252ad1be2c89b69c2b068fc378daa952ba7f163c4a11628f55a4df523b3ef60405160405180910390a461228860008383611ae0565b5050565b6000808273ffffffffffffffffffffffffffffffffffffffff163b119050919050565b6000604051905090565b600080fd5b600080fd5b60007fffffffff0000000000000000000000000000000000000000000000000000000082169050919050565b6122f8816122c3565b811461230357600080fd5b50565b600081359050612315816122ef565b92915050565b600060208284031215612331576123306122b9565b5b600061233f84828501612306565b91505092915050565b60008115159050919050565b61235d81612348565b82525050565b60006020820190506123786000830184612354565b92915050565b600081519050919050565b600082825260208201905092915050565b60005b838110156123b857808201518184015260208101905061239d565b838111156123c7576000848401525b50505050565b6000601f19601f8301169050919050565b60006123e98261237e565b6123f38185612389565b935061240381856020860161239a565b61240c816123cd565b840191505092915050565b6000602082019050818103600083015261243181846123de565b905092915050565b6000819050919050565b61244c81612439565b811461245757600080fd5b50565b60008135905061246981612443565b92915050565b600060208284031215612485576124846122b9565b5b60006124938482850161245a565b91505092915050565b600073ffffffffffffffffffffffffffffffffffffffff82169050919050565b60006124c78261249c565b9050919050565b6124d7816124bc565b82525050565b60006020820190506124f260008301846124ce565b92915050565b612501816124bc565b811461250c57600080fd5b50565b60008135905061251e816124f8565b92915050565b6000806040838503121561253b5761253a6122b9565b5b60006125498582860161250f565b925050602061255a8582860161245a565b9150509250929050565b60008060006060848603121561257d5761257c6122b9565b5b600061258b8682870161250f565b935050602061259c8682870161250f565b92505060406125ad8682870161245a565b9150509250925092565b6000819050919050565b6125ca816125b7565b81146125d557600080fd5b50565b6000813590506125e7816125c1565b92915050565b600060208284031215612603576126026122b9565b5b6000612611848285016125d8565b91505092915050565b612623816125b7565b82525050565b600060208201905061263e600083018461261a565b92915050565b6000806040838503121561265b5761265a6122b9565b5b6000612669858286016125d8565b925050602061267a8582860161250f565b9150509250929050565b60006020828403121561269a576126996122b9565b5b60006126a88482850161250f565b91505092915050565b6126ba81612439565b82525050565b60006020820190506126d560008301846126b1565b92915050565b6126e481612348565b81146126ef57600080fd5b50565b600081359050612701816126db565b92915050565b6000806040838503121561271e5761271d6122b9565b5b600061272c8582860161250f565b925050602061273d858286016126f2565b9150509250929050565b600080fd5b600080fd5b7f4e487b7100000000000000000000000000000000000000000000000000000000600052604160045260246000fd5b612789826123cd565b810181811067ffffffffffffffff821117156127a8576127a7612751565b5b80604052505050565b60006127bb6122af565b90506127c78282612780565b919050565b600067ffffffffffffffff8211156127e7576127e6612751565b5b6127f0826123cd565b9050602081019050919050565b82818337600083830152505050565b600061281f61281a846127cc565b6127b1565b90508281526020810184848401111561283b5761283a61274c565b5b6128468482856127fd565b509392505050565b600082601f83011261286357612862612747565b5b813561287384826020860161280c565b91505092915050565b60008060008060808587031215612896576128956122b9565b5b60006128a48782880161250f565b94505060206128b58782880161250f565b93505060406128c68782880161245a565b925050606085013567ffffffffffffffff8111156128e7576128e66122be565b5b6128f38782880161284e565b91505092959194509250565b60008060408385031215612916576129156122b9565b5b60006129248582860161250f565b92505060206129358582860161250f565b9150509250929050565b7f4e487b7100000000000000000000000000000000000000000000000000000000600052602260045260246000fd5b6000600282049050600182168061298657607f821691505b6020821081141561299a5761299961293f565b5b50919050565b7f4552433732313a20617070726f76616c20746f2063757272656e74206f776e6560008201527f7200000000000000000000000000000000000000000000000000000000000000602082015250565b60006129fc602183612389565b9150612a07826129a0565b604082019050919050565b60006020820190508181036000830152612a2b816129ef565b9050919050565b7f4552433732313a20617070726f76652063616c6c6572206973206e6f7420746f60008201527f6b656e206f776e6572206e6f7220617070726f76656420666f7220616c6c0000602082015250565b6000612a8e603e83612389565b9150612a9982612a32565b604082019050919050565b60006020820190508181036000830152612abd81612a81565b9050919050565b7f4552433732313a2063616c6c6572206973206e6f7420746f6b656e206f776e6560008201527f72206e6f7220617070726f766564000000000000000000000000000000000000602082015250565b6000612b20602e83612389565b9150612b2b82612ac4565b604082019050919050565b60006020820190508181036000830152612b4f81612b13565b9050919050565b7f416363657373436f6e74726f6c3a2063616e206f6e6c792072656e6f756e636560008201527f20726f6c657320666f722073656c660000000000000000000000000000000000602082015250565b6000612bb2602f83612389565b9150612bbd82612b56565b604082019050919050565b60006020820190508181036000830152612be181612ba5565b9050919050565b7f4552433732313a20696e76616c696420746f6b656e2049440000000000000000600082015250565b6000612c1e601883612389565b9150612c2982612be8565b602082019050919050565b60006020820190508181036000830152612c4d81612c11565b9050919050565b7f4552433732313a2061646472657373207a65726f206973206e6f74206120766160008201527f6c6964206f776e65720000000000000000000000000000000000000000000000602082015250565b6000612cb0602983612389565b9150612cbb82612c54565b604082019050919050565b60006020820190508181036000830152612cdf81612ca3565b9050919050565b600081905092915050565b6000612cfc8261237e565b612d068185612ce6565b9350612d1681856020860161239a565b80840191505092915050565b6000612d2e8285612cf1565b9150612d3a8284612cf1565b91508190509392505050565b7f4552433732313a207472616e736665722066726f6d20696e636f72726563742060008201527f6f776e6572000000000000000000000000000000000000000000000000000000602082015250565b6000612da2602583612389565b9150612dad82612d46565b604082019050919050565b60006020820190508181036000830152612dd181612d95565b9050919050565b7f4552433732313a207472616e7366657220746f20746865207a65726f2061646460008201527f7265737300000000000000000000000000000000000000000000000000000000602082015250565b6000612e34602483612389565b9150612e3f82612dd8565b604082019050919050565b60006020820190508181036000830152612e6381612e27565b9050919050565b7f4e487b7100000000000000000000000000000000000000000000000000000000600052601160045260246000fd5b6000612ea482612439565b9150612eaf83612439565b925082821015612ec257612ec1612e6a565b5b828203905092915050565b6000612ed882612439565b9150612ee383612439565b9250827fffffffffffffffffffffffffffffffffffffffffffffffffffffffffffffffff03821115612f1857612f17612e6a565b5b828201905092915050565b7f4552433732313a20617070726f766520746f2063616c6c657200000000000000600082015250565b6000612f59601983612389565b9150612f6482612f23565b602082019050919050565b60006020820190508181036000830152612f8881612f4c565b9050919050565b7f4552433732313a207472616e7366657220746f206e6f6e20455243373231526560008201527f63656976657220696d706c656d656e7465720000000000000000000000000000602082015250565b6000612feb603283612389565b9150612ff682612f8f565b604082019050919050565b6000602082019050818103600083015261301a81612fde565b9050919050565b600061302c82612439565b91507fffffffffffffffffffffffffffffffffffffffffffffffffffffffffffffffff82141561305f5761305e612e6a565b5b600182019050919050565b7f4e487b7100000000000000000000000000000000000000000000000000000000600052601260045260246000fd5b60006130a482612439565b91506130af83612439565b9250826130bf576130be61306a565b5b828204905092915050565b60006130d582612439565b91506130e083612439565b9250826130f0576130ef61306a565b5b828206905092915050565b7f4e487b7100000000000000000000000000000000000000000000000000000000600052603260045260246000fd5b7f416363657373436f6e74726f6c3a206163636f756e7420000000000000000000600082015250565b6000613160601783612ce6565b915061316b8261312a565b601782019050919050565b7f206973206d697373696e6720726f6c6520000000000000000000000000000000600082015250565b60006131ac601183612ce6565b91506131b782613176565b601182019050919050565b60006131cd82613153565b91506131d98285612cf1565b91506131e48261319f565b91506131f08284612cf1565b91508190509392505050565b7f5061757361626c653a206e6f7420706175736564000000000000000000000000600082015250565b6000613232601483612389565b915061323d826131fc565b602082019050919050565b6000602082019050818103600083015261326181613225565b9050919050565b7f5061757361626c653a2070617573656400000000000000000000000000000000600082015250565b600061329e601083612389565b91506132a982613268565b602082019050919050565b600060208201905081810360008301526132cd81613291565b9050919050565b600081519050919050565b600082825260208201905092915050565b60006132fb826132d4565b61330581856132df565b935061331581856020860161239a565b61331e816123cd565b840191505092915050565b600060808201905061333e60008301876124ce565b61334b60208301866124ce565b61335860408301856126b1565b818103606083015261336a81846132f0565b905095945050505050565b600081519050613384816122ef565b92915050565b6000602082840312156133a05761339f6122b9565b5b60006133ae84828501613375565b91505092915050565b60006133c282612439565b91506133cd83612439565b9250817fffffffffffffffffffffffffffffffffffffffffffffffffffffffffffffffff048311821515161561340657613405612e6a565b5b828202905092915050565b600061341c82612439565b915060008214156134305761342f612e6a565b5b600182039050919050565b7f537472696e67733a20686578206c656e67746820696e73756666696369656e74600082015250565b6000613471602083612389565b915061347c8261343b565b602082019050919050565b600060208201905081810360008301526134a081613464565b9050919050565b7f4552433732313a206d696e7420746f20746865207a65726f2061646472657373600082015250565b60006134dd602083612389565b91506134e8826134a7565b602082019050919050565b6000602082019050818103600083015261350c816134d0565b9050919050565b7f4552433732313a20746f6b656e20616c7265616479206d696e74656400000000600082015250565b6000613549601c83612389565b915061355482613513565b602082019050919050565b600060208201905081810360008301526135788161353c565b905091905056fe697066733a2f2f516d626247676f39334d367972355753554d6a353353574e327643374c36614d5331475a53504e6b5652593865342fa2646970667358221220e009abcce9fde5cc642c18c235d4038115f618cc2bc3f401ae87544334b87bd264736f6c63430008090033",
  "linkReferences": {},
  "deployedLinkReferences": {}
}