{
  "_format": "hh-sol-artifact-1",
  "contractName": "AirdropTWOoooo",
  "sourceName": "contracts/AirDropTwoooo.sol",
  "abi": [
    {
      "inputs": [],
      "stateMutability": "nonpayable",
      "type": "constructor"
    },
    {
      "anonymous": false,
      "inputs": [
        {
          "indexed": false,
          "internalType": "address",
          "name": "account",
          "type": "address"
        }
      ],
      "name": "Paused",
      "type": "event"
    },
    {
      "anonymous": false,
      "inputs": [
        {
          "indexed": true,
          "internalType": "bytes32",
          "name": "role",
          "type": "bytes32"
        },
        {
          "indexed": true,
          "internalType": "bytes32",
          "name": "previousAdminRole",
          "type": "bytes32"
        },
        {
          "indexed": true,
          "internalType": "bytes32",
          "name": "newAdminRole",
          "type": "bytes32"
        }
      ],
      "name": "RoleAdminChanged",
      "type": "event"
    },
    {
      "anonymous": false,
      "inputs": [
        {
          "indexed": true,
          "internalType": "bytes32",
          "name": "role",
          "type": "bytes32"
        },
        {
          "indexed": true,
          "internalType": "address",
          "name": "account",
          "type": "address"
        },
        {
          "indexed": true,
          "internalType": "address",
          "name": "sender",
          "type": "address"
        }
      ],
      "name": "RoleGranted",
      "type": "event"
    },
    {
      "anonymous": false,
      "inputs": [
        {
          "indexed": true,
          "internalType": "bytes32",
          "name": "role",
          "type": "bytes32"
        },
        {
          "indexed": true,
          "internalType": "address",
          "name": "account",
          "type": "address"
        },
        {
          "indexed": true,
          "internalType": "address",
          "name": "sender",
          "type": "address"
        }
      ],
      "name": "RoleRevoked",
      "type": "event"
    },
    {
      "anonymous": false,
      "inputs": [
        {
          "indexed": false,
          "internalType": "address",
          "name": "account",
          "type": "address"
        }
      ],
      "name": "Unpaused",
      "type": "event"
    },
    {
      "inputs": [],
      "name": "DEFAULT_ADMIN_ROLE",
      "outputs": [
        {
          "internalType": "bytes32",
          "name": "",
          "type": "bytes32"
        }
      ],
      "stateMutability": "view",
      "type": "function"
    },
    {
      "inputs": [],
      "name": "PAUSER_ROLE",
      "outputs": [
        {
          "internalType": "bytes32",
          "name": "",
          "type": "bytes32"
        }
      ],
      "stateMutability": "view",
      "type": "function"
    },
    {
      "inputs": [
        {
          "internalType": "address[]",
          "name": "accounts",
          "type": "address[]"
        },
        {
          "internalType": "uint256[]",
          "name": "amounts",
          "type": "uint256[]"
        }
      ],
      "name": "deliverInBatch",
      "outputs": [],
      "stateMutability": "nonpayable",
      "type": "function"
    },
    {
      "inputs": [
        {
          "internalType": "bytes32",
          "name": "role",
          "type": "bytes32"
        }
      ],
      "name": "getRoleAdmin",
      "outputs": [
        {
          "internalType": "bytes32",
          "name": "",
          "type": "bytes32"
        }
      ],
      "stateMutability": "view",
      "type": "function"
    },
    {
      "inputs": [
        {
          "internalType": "bytes32",
          "name": "role",
          "type": "bytes32"
        },
        {
          "internalType": "address",
          "name": "account",
          "type": "address"
        }
      ],
      "name": "grantRole",
      "outputs": [],
      "stateMutability": "nonpayable",
      "type": "function"
    },
    {
      "inputs": [
        {
          "internalType": "bytes32",
          "name": "role",
          "type": "bytes32"
        },
        {
          "internalType": "address",
          "name": "account",
          "type": "address"
        }
      ],
      "name": "hasRole",
      "outputs": [
        {
          "internalType": "bool",
          "name": "",
          "type": "bool"
        }
      ],
      "stateMutability": "view",
      "type": "function"
    },
    {
      "inputs": [
        {
          "internalType": "address",
          "name": "",
          "type": "address"
        }
      ],
      "name": "participantes",
      "outputs": [
        {
          "internalType": "address",
          "name": "account",
          "type": "address"
        },
        {
          "internalType": "uint256",
          "name": "participaciones",
          "type": "uint256"
        },
        {
          "internalType": "uint256",
          "name": "limiteParticipaciones",
          "type": "uint256"
        },
        {
          "internalType": "uint256",
          "name": "ultimaVezQueParticipo",
          "type": "uint256"
        }
      ],
      "stateMutability": "view",
      "type": "function"
    },
    {
      "inputs": [
        {
          "internalType": "address",
          "name": "_personaQueTeRefirio",
          "type": "address"
        }
      ],
      "name": "participateInAirdrop",
      "outputs": [],
      "stateMutability": "nonpayable",
      "type": "function"
    },
    {
      "inputs": [],
      "name": "pause",
      "outputs": [],
      "stateMutability": "nonpayable",
      "type": "function"
    },
    {
      "inputs": [],
      "name": "paused",
      "outputs": [
        {
          "internalType": "bool",
          "name": "",
          "type": "bool"
        }
      ],
      "stateMutability": "view",
      "type": "function"
    },
    {
      "inputs": [
        {
          "internalType": "bytes32",
          "name": "role",
          "type": "bytes32"
        },
        {
          "internalType": "address",
          "name": "account",
          "type": "address"
        }
      ],
      "name": "renounceRole",
      "outputs": [],
      "stateMutability": "nonpayable",
      "type": "function"
    },
    {
      "inputs": [
        {
          "internalType": "bytes32",
          "name": "role",
          "type": "bytes32"
        },
        {
          "internalType": "address",
          "name": "account",
          "type": "address"
        }
      ],
      "name": "revokeRole",
      "outputs": [],
      "stateMutability": "nonpayable",
      "type": "function"
    },
    {
      "inputs": [
        {
          "internalType": "bytes4",
          "name": "interfaceId",
          "type": "bytes4"
        }
      ],
      "name": "supportsInterface",
      "outputs": [
        {
          "internalType": "bool",
          "name": "",
          "type": "bool"
        }
      ],
      "stateMutability": "view",
      "type": "function"
    },
    {
      "inputs": [],
      "name": "unpause",
      "outputs": [],
      "stateMutability": "nonpayable",
      "type": "function"
    }
  ],
  "bytecode": "0x6080604052600260009054906101000a900473ffffffffffffffffffffffffffffffffffffffff16600360006101000a81548173ffffffffffffffffffffffffffffffffffffffff021916908373ffffffffffffffffffffffffffffffffffffffff1602179055503480156200007457600080fd5b5060008060006101000a81548160ff021916908315150217905550620000a46000801b33620000dc60201b60201c565b620000d67f65d7a28e3265b37a6474929f336521b332c1681b933f6cb9f3376673440d862a33620000dc60201b60201c565b62000240565b620000ee8282620001cd60201b60201c565b620001c957600180600084815260200190815260200160002060000160008373ffffffffffffffffffffffffffffffffffffffff1673ffffffffffffffffffffffffffffffffffffffff16815260200190815260200160002060006101000a81548160ff0219169083151502179055506200016e6200023860201b60201c565b73ffffffffffffffffffffffffffffffffffffffff168173ffffffffffffffffffffffffffffffffffffffff16837f2f8788117e7eff1d82e926ec794901d17c78024a50270940304540a733656f0d60405160405180910390a45b5050565b60006001600084815260200190815260200160002060000160008373ffffffffffffffffffffffffffffffffffffffff1673ffffffffffffffffffffffffffffffffffffffff16815260200190815260200160002060009054906101000a900460ff16905092915050565b600033905090565b6121c980620002506000396000f3fe608060405234801561001057600080fd5b50600436106100ea5760003560e01c806362c1d09e1161008c578063a217fddf11610066578063a217fddf14610238578063a4dfc6e014610256578063d547741f14610272578063e63ab1e91461028e576100ea565b806362c1d09e146101e25780638456cb59146101fe57806391d1485414610208576100ea565b80632fffcf96116100c85780632fffcf961461016b57806336568abe1461019e5780633f4ba83a146101ba5780635c975abb146101c4576100ea565b806301ffc9a7146100ef578063248a9ca31461011f5780632f2ff15d1461014f575b600080fd5b610109600480360381019061010491906113cc565b6102ac565b6040516101169190611414565b60405180910390f35b61013960048036038101906101349190611465565b610326565b60405161014691906114a1565b60405180910390f35b6101696004803603810190610164919061151a565b610346565b005b6101856004803603810190610180919061155a565b610367565b60405161019594939291906115af565b60405180910390f35b6101b860048036038101906101b3919061151a565b6103b7565b005b6101c261043a565b005b6101cc61046f565b6040516101d99190611414565b60405180910390f35b6101fc60048036038101906101f7919061183c565b610485565b005b6102066105a7565b005b610222600480360381019061021d919061151a565b6105dc565b60405161022f9190611414565b60405180910390f35b610240610647565b60405161024d91906114a1565b60405180910390f35b610270600480360381019061026b919061155a565b61064e565b005b61028c6004803603810190610287919061151a565b610c4a565b005b610296610c6b565b6040516102a391906114a1565b60405180910390f35b60007f7965db0b000000000000000000000000000000000000000000000000000000007bffffffffffffffffffffffffffffffffffffffffffffffffffffffff1916827bffffffffffffffffffffffffffffffffffffffffffffffffffffffff1916148061031f575061031e82610c8f565b5b9050919050565b600060016000838152602001908152602001600020600101549050919050565b61034f82610326565b61035881610cf9565b6103628383610d0d565b505050565b60046020528060005260406000206000915090508060000160009054906101000a900473ffffffffffffffffffffffffffffffffffffffff16908060010154908060020154908060030154905084565b6103bf610ded565b73ffffffffffffffffffffffffffffffffffffffff168173ffffffffffffffffffffffffffffffffffffffff161461042c576040517f08c379a000000000000000000000000000000000000000000000000000000000815260040161042390611937565b60405180910390fd5b6104368282610df5565b5050565b7f65d7a28e3265b37a6474929f336521b332c1681b933f6cb9f3376673440d862a61046481610cf9565b61046c610ed7565b50565b60008060009054906101000a900460ff16905090565b6000801b61049281610cf9565b60008351905060005b818110156105a05760008582815181106104b8576104b7611957565b5b60200260200101519050600360009054906101000a900473ffffffffffffffffffffffffffffffffffffffff1673ffffffffffffffffffffffffffffffffffffffff1663a9059cbb8287858151811061051457610513611957565b5b60200260200101516040518363ffffffff1660e01b8152600401610539929190611986565b602060405180830381600087803b15801561055357600080fd5b505af1158015610567573d6000803e3d6000fd5b505050506040513d601f19601f8201168201806040525081019061058b91906119db565b5050808061059890611a37565b91505061049b565b5050505050565b7f65d7a28e3265b37a6474929f336521b332c1681b933f6cb9f3376673440d862a6105d181610cf9565b6105d9610f39565b50565b60006001600084815260200190815260200160002060000160008373ffffffffffffffffffffffffffffffffffffffff1673ffffffffffffffffffffffffffffffffffffffff16815260200190815260200160002060009054906101000a900460ff16905092915050565b6000801b81565b600073ffffffffffffffffffffffffffffffffffffffff16600460003373ffffffffffffffffffffffffffffffffffffffff1673ffffffffffffffffffffffffffffffffffffffff16815260200190815260200160002060000160009054906101000a900473ffffffffffffffffffffffffffffffffffffffff1673ffffffffffffffffffffffffffffffffffffffff1614156107d057600060405180608001604052803373ffffffffffffffffffffffffffffffffffffffff16815260200160018152602001600a815260200142815250905080600460003373ffffffffffffffffffffffffffffffffffffffff1673ffffffffffffffffffffffffffffffffffffffff16815260200190815260200160002060008201518160000160006101000a81548173ffffffffffffffffffffffffffffffffffffffff021916908373ffffffffffffffffffffffffffffffffffffffff160217905550602082015181600101556040820151816002015560608201518160030155905050506108d7565b6000600460003373ffffffffffffffffffffffffffffffffffffffff1673ffffffffffffffffffffffffffffffffffffffff168152602001908152602001600020905080600201548160010154111561085e576040517f08c379a000000000000000000000000000000000000000000000000000000000815260040161085590611af2565b60405180910390fd5b80600101600081548092919061087390611a37565b91905055504262015180826003015461088c9190611b12565b116108cc576040517f08c379a00000000000000000000000000000000000000000000000000000000081526004016108c390611bb4565b60405180910390fd5b428160030181905550505b60006108e1610f9b565b9050600081600360009054906101000a900473ffffffffffffffffffffffffffffffffffffffff1673ffffffffffffffffffffffffffffffffffffffff166318160ddd6040518163ffffffff1660e01b815260040160206040518083038186803b15801561094e57600080fd5b505afa158015610962573d6000803e3d6000fd5b505050506040513d601f19601f820116820180604052508101906109869190611be9565b6109909190611b12565b905069d3c21bcecceda10000008111156109df576040517f08c379a00000000000000000000000000000000000000000000000000000000081526004016109d690611c88565b60405180910390fd5b81600360009054906101000a900473ffffffffffffffffffffffffffffffffffffffff1673ffffffffffffffffffffffffffffffffffffffff166370a08231306040518263ffffffff1660e01b8152600401610a3b9190611ca8565b60206040518083038186803b158015610a5357600080fd5b505afa158015610a67573d6000803e3d6000fd5b505050506040513d601f19601f82011682018060405250810190610a8b9190611be9565b1015610acc576040517f08c379a0000000000000000000000000000000000000000000000000000000008152600401610ac390611d0f565b60405180910390fd5b600360009054906101000a900473ffffffffffffffffffffffffffffffffffffffff1673ffffffffffffffffffffffffffffffffffffffff1663a9059cbb33846040518363ffffffff1660e01b8152600401610b29929190611986565b602060405180830381600087803b158015610b4357600080fd5b505af1158015610b57573d6000803e3d6000fd5b505050506040513d601f19601f82011682018060405250810190610b7b91906119db565b50600073ffffffffffffffffffffffffffffffffffffffff168373ffffffffffffffffffffffffffffffffffffffff1614158015610be557503373ffffffffffffffffffffffffffffffffffffffff168373ffffffffffffffffffffffffffffffffffffffff1614155b15610c45576003600460008573ffffffffffffffffffffffffffffffffffffffff1673ffffffffffffffffffffffffffffffffffffffff1681526020019081526020016000206002016000828254610c3d9190611b12565b925050819055505b505050565b610c5382610326565b610c5c81610cf9565b610c668383610df5565b505050565b7f65d7a28e3265b37a6474929f336521b332c1681b933f6cb9f3376673440d862a81565b60007f01ffc9a7000000000000000000000000000000000000000000000000000000007bffffffffffffffffffffffffffffffffffffffffffffffffffffffff1916827bffffffffffffffffffffffffffffffffffffffffffffffffffffffff1916149050919050565b610d0a81610d05610ded565b610ff4565b50565b610d1782826105dc565b610de957600180600084815260200190815260200160002060000160008373ffffffffffffffffffffffffffffffffffffffff1673ffffffffffffffffffffffffffffffffffffffff16815260200190815260200160002060006101000a81548160ff021916908315150217905550610d8e610ded565b73ffffffffffffffffffffffffffffffffffffffff168173ffffffffffffffffffffffffffffffffffffffff16837f2f8788117e7eff1d82e926ec794901d17c78024a50270940304540a733656f0d60405160405180910390a45b5050565b600033905090565b610dff82826105dc565b15610ed35760006001600084815260200190815260200160002060000160008373ffffffffffffffffffffffffffffffffffffffff1673ffffffffffffffffffffffffffffffffffffffff16815260200190815260200160002060006101000a81548160ff021916908315150217905550610e78610ded565b73ffffffffffffffffffffffffffffffffffffffff168173ffffffffffffffffffffffffffffffffffffffff16837ff6391f5c32d9c69d2a47ea670b442974b53935d1edc7fd64eb21e047a839171b60405160405180910390a45b5050565b610edf611091565b60008060006101000a81548160ff0219169083151502179055507f5db9ee0a495bf2e6ff9c91a7834c1ba4fdd244a5e8aa4e537bd38aeae4b073aa610f22610ded565b604051610f2f9190611ca8565b60405180910390a1565b610f416110da565b60016000806101000a81548160ff0219169083151502179055507f62e78cea01bee320cd4e420270b5ea74000d11b0c9f74754ebdbfc544b05a258610f84610ded565b604051610f919190611ca8565b60405180910390a1565b600060016103e8610fa04233604051602001610fb8929190611d98565b6040516020818303038152906040528051906020012060001c610fdb9190611df3565b610fe59190611b12565b610fef9190611b12565b905090565b610ffe82826105dc565b61108d576110238173ffffffffffffffffffffffffffffffffffffffff166014611124565b6110318360001c6020611124565b604051602001611042929190611f36565b6040516020818303038152906040526040517f08c379a00000000000000000000000000000000000000000000000000000000081526004016110849190611fa9565b60405180910390fd5b5050565b61109961046f565b6110d8576040517f08c379a00000000000000000000000000000000000000000000000000000000081526004016110cf90612017565b60405180910390fd5b565b6110e261046f565b15611122576040517f08c379a000000000000000000000000000000000000000000000000000000000815260040161111990612083565b60405180910390fd5b565b60606000600283600261113791906120a3565b6111419190611b12565b67ffffffffffffffff81111561115a5761115961160a565b5b6040519080825280601f01601f19166020018201604052801561118c5781602001600182028036833780820191505090505b5090507f3000000000000000000000000000000000000000000000000000000000000000816000815181106111c4576111c3611957565b5b60200101907effffffffffffffffffffffffffffffffffffffffffffffffffffffffffffff1916908160001a9053507f78000000000000000000000000000000000000000000000000000000000000008160018151811061122857611227611957565b5b60200101907effffffffffffffffffffffffffffffffffffffffffffffffffffffffffffff1916908160001a9053506000600184600261126891906120a3565b6112729190611b12565b90505b6001811115611312577f3031323334353637383961626364656600000000000000000000000000000000600f8616601081106112b4576112b3611957565b5b1a60f81b8282815181106112cb576112ca611957565b5b60200101907effffffffffffffffffffffffffffffffffffffffffffffffffffffffffffff1916908160001a905350600485901c94508061130b906120fd565b9050611275565b5060008414611356576040517f08c379a000000000000000000000000000000000000000000000000000000000815260040161134d90612173565b60405180910390fd5b8091505092915050565b6000604051905090565b600080fd5b600080fd5b60007fffffffff0000000000000000000000000000000000000000000000000000000082169050919050565b6113a981611374565b81146113b457600080fd5b50565b6000813590506113c6816113a0565b92915050565b6000602082840312156113e2576113e161136a565b5b60006113f0848285016113b7565b91505092915050565b60008115159050919050565b61140e816113f9565b82525050565b60006020820190506114296000830184611405565b92915050565b6000819050919050565b6114428161142f565b811461144d57600080fd5b50565b60008135905061145f81611439565b92915050565b60006020828403121561147b5761147a61136a565b5b600061148984828501611450565b91505092915050565b61149b8161142f565b82525050565b60006020820190506114b66000830184611492565b92915050565b600073ffffffffffffffffffffffffffffffffffffffff82169050919050565b60006114e7826114bc565b9050919050565b6114f7816114dc565b811461150257600080fd5b50565b600081359050611514816114ee565b92915050565b600080604083850312156115315761153061136a565b5b600061153f85828601611450565b925050602061155085828601611505565b9150509250929050565b6000602082840312156115705761156f61136a565b5b600061157e84828501611505565b91505092915050565b611590816114dc565b82525050565b6000819050919050565b6115a981611596565b82525050565b60006080820190506115c46000830187611587565b6115d160208301866115a0565b6115de60408301856115a0565b6115eb60608301846115a0565b95945050505050565b600080fd5b6000601f19601f8301169050919050565b7f4e487b7100000000000000000000000000000000000000000000000000000000600052604160045260246000fd5b611642826115f9565b810181811067ffffffffffffffff821117156116615761166061160a565b5b80604052505050565b6000611674611360565b90506116808282611639565b919050565b600067ffffffffffffffff8211156116a05761169f61160a565b5b602082029050602081019050919050565b600080fd5b60006116c96116c484611685565b61166a565b905080838252602082019050602084028301858111156116ec576116eb6116b1565b5b835b8181101561171557806117018882611505565b8452602084019350506020810190506116ee565b5050509392505050565b600082601f830112611734576117336115f4565b5b81356117448482602086016116b6565b91505092915050565b600067ffffffffffffffff8211156117685761176761160a565b5b602082029050602081019050919050565b61178281611596565b811461178d57600080fd5b50565b60008135905061179f81611779565b92915050565b60006117b86117b38461174d565b61166a565b905080838252602082019050602084028301858111156117db576117da6116b1565b5b835b8181101561180457806117f08882611790565b8452602084019350506020810190506117dd565b5050509392505050565b600082601f830112611823576118226115f4565b5b81356118338482602086016117a5565b91505092915050565b600080604083850312156118535761185261136a565b5b600083013567ffffffffffffffff8111156118715761187061136f565b5b61187d8582860161171f565b925050602083013567ffffffffffffffff81111561189e5761189d61136f565b5b6118aa8582860161180e565b9150509250929050565b600082825260208201905092915050565b7f416363657373436f6e74726f6c3a2063616e206f6e6c792072656e6f756e636560008201527f20726f6c657320666f722073656c660000000000000000000000000000000000602082015250565b6000611921602f836118b4565b915061192c826118c5565b604082019050919050565b6000602082019050818103600083015261195081611914565b9050919050565b7f4e487b7100000000000000000000000000000000000000000000000000000000600052603260045260246000fd5b600060408201905061199b6000830185611587565b6119a860208301846115a0565b9392505050565b6119b8816113f9565b81146119c357600080fd5b50565b6000815190506119d5816119af565b92915050565b6000602082840312156119f1576119f061136a565b5b60006119ff848285016119c6565b91505092915050565b7f4e487b7100000000000000000000000000000000000000000000000000000000600052601160045260246000fd5b6000611a4282611596565b91507fffffffffffffffffffffffffffffffffffffffffffffffffffffffffffffffff821415611a7557611a74611a08565b5b600182019050919050565b7f536f6272657061736f207375206c696d6974652064652070617274696369706160008201527f63696f6e65730000000000000000000000000000000000000000000000000000602082015250565b6000611adc6026836118b4565b9150611ae782611a80565b604082019050919050565b60006020820190508181036000830152611b0b81611acf565b9050919050565b6000611b1d82611596565b9150611b2883611596565b9250827fffffffffffffffffffffffffffffffffffffffffffffffffffffffffffffffff03821115611b5d57611b5c611a08565b5b828201905092915050565b7f41756e20657374612064656e74726f2064656c20646961000000000000000000600082015250565b6000611b9e6017836118b4565b9150611ba982611b68565b602082019050919050565b60006020820190508181036000830152611bcd81611b91565b9050919050565b600081519050611be381611779565b92915050565b600060208284031215611bff57611bfe61136a565b5b6000611c0d84828501611bd4565b91505092915050565b7f536f6272657061736f20656c206d696c6c6f6e20646520746f6b656e7320656e60008201527f20737570706c7900000000000000000000000000000000000000000000000000602082015250565b6000611c726027836118b4565b9150611c7d82611c16565b604082019050919050565b60006020820190508181036000830152611ca181611c65565b9050919050565b6000602082019050611cbd6000830184611587565b92915050565b7f41697264726f70205343206e6f207469656e6520746f6b656e73000000000000600082015250565b6000611cf9601a836118b4565b9150611d0482611cc3565b602082019050919050565b60006020820190508181036000830152611d2881611cec565b9050919050565b6000819050919050565b611d4a611d4582611596565b611d2f565b82525050565b60008160601b9050919050565b6000611d6882611d50565b9050919050565b6000611d7a82611d5d565b9050919050565b611d92611d8d826114dc565b611d6f565b82525050565b6000611da48285611d39565b602082019150611db48284611d81565b6014820191508190509392505050565b7f4e487b7100000000000000000000000000000000000000000000000000000000600052601260045260246000fd5b6000611dfe82611596565b9150611e0983611596565b925082611e1957611e18611dc4565b5b828206905092915050565b600081905092915050565b7f416363657373436f6e74726f6c3a206163636f756e7420000000000000000000600082015250565b6000611e65601783611e24565b9150611e7082611e2f565b601782019050919050565b600081519050919050565b60005b83811015611ea4578082015181840152602081019050611e89565b83811115611eb3576000848401525b50505050565b6000611ec482611e7b565b611ece8185611e24565b9350611ede818560208601611e86565b80840191505092915050565b7f206973206d697373696e6720726f6c6520000000000000000000000000000000600082015250565b6000611f20601183611e24565b9150611f2b82611eea565b601182019050919050565b6000611f4182611e58565b9150611f4d8285611eb9565b9150611f5882611f13565b9150611f648284611eb9565b91508190509392505050565b6000611f7b82611e7b565b611f8581856118b4565b9350611f95818560208601611e86565b611f9e816115f9565b840191505092915050565b60006020820190508181036000830152611fc38184611f70565b905092915050565b7f5061757361626c653a206e6f7420706175736564000000000000000000000000600082015250565b60006120016014836118b4565b915061200c82611fcb565b602082019050919050565b6000602082019050818103600083015261203081611ff4565b9050919050565b7f5061757361626c653a2070617573656400000000000000000000000000000000600082015250565b600061206d6010836118b4565b915061207882612037565b602082019050919050565b6000602082019050818103600083015261209c81612060565b9050919050565b60006120ae82611596565b91506120b983611596565b9250817fffffffffffffffffffffffffffffffffffffffffffffffffffffffffffffffff04831182151516156120f2576120f1611a08565b5b828202905092915050565b600061210882611596565b9150600082141561211c5761211b611a08565b5b600182039050919050565b7f537472696e67733a20686578206c656e67746820696e73756666696369656e74600082015250565b600061215d6020836118b4565b915061216882612127565b602082019050919050565b6000602082019050818103600083015261218c81612150565b905091905056fea2646970667358221220d7ffee91221125b47e5ceb3ba5b181dc8d4ab17ebf9d982e9918e8ebdd13055764736f6c63430008090033",
  "linkReferences": {},
  "deployedLinkReferences": {}
}