{
  "_format": "hh-sol-artifact-1",
  "contractName": "Airdrop",
  "sourceName": "contracts/learning/Airdrop.sol",
  "abi": [
    {
      "inputs": [
        {
          "internalType": "address",
          "name": "_tokenAddress",
          "type": "address"
        }
      ],
      "stateMutability": "nonpayable",
      "type": "constructor"
    },
    {
      "anonymous": false,
      "inputs": [
        {
          "indexed": true,
          "internalType": "bytes32",
          "name": "role",
          "type": "bytes32"
        },
        {
          "indexed": true,
          "internalType": "bytes32",
          "name": "previousAdminRole",
          "type": "bytes32"
        },
        {
          "indexed": true,
          "internalType": "bytes32",
          "name": "newAdminRole",
          "type": "bytes32"
        }
      ],
      "name": "RoleAdminChanged",
      "type": "event"
    },
    {
      "anonymous": false,
      "inputs": [
        {
          "indexed": true,
          "internalType": "bytes32",
          "name": "role",
          "type": "bytes32"
        },
        {
          "indexed": true,
          "internalType": "address",
          "name": "account",
          "type": "address"
        },
        {
          "indexed": true,
          "internalType": "address",
          "name": "sender",
          "type": "address"
        }
      ],
      "name": "RoleGranted",
      "type": "event"
    },
    {
      "anonymous": false,
      "inputs": [
        {
          "indexed": true,
          "internalType": "bytes32",
          "name": "role",
          "type": "bytes32"
        },
        {
          "indexed": true,
          "internalType": "address",
          "name": "account",
          "type": "address"
        },
        {
          "indexed": true,
          "internalType": "address",
          "name": "sender",
          "type": "address"
        }
      ],
      "name": "RoleRevoked",
      "type": "event"
    },
    {
      "inputs": [],
      "name": "DEFAULT_ADMIN_ROLE",
      "outputs": [
        {
          "internalType": "bytes32",
          "name": "",
          "type": "bytes32"
        }
      ],
      "stateMutability": "view",
      "type": "function"
    },
    {
      "inputs": [
        {
          "internalType": "address[]",
          "name": "_addresses",
          "type": "address[]"
        }
      ],
      "name": "addToBlueListBatch",
      "outputs": [],
      "stateMutability": "nonpayable",
      "type": "function"
    },
    {
      "inputs": [
        {
          "internalType": "address[]",
          "name": "_addresses",
          "type": "address[]"
        }
      ],
      "name": "addToWhiteListBatch",
      "outputs": [],
      "stateMutability": "nonpayable",
      "type": "function"
    },
    {
      "inputs": [],
      "name": "burnMyTokensToParticipate",
      "outputs": [],
      "stateMutability": "nonpayable",
      "type": "function"
    },
    {
      "inputs": [
        {
          "internalType": "bytes32",
          "name": "role",
          "type": "bytes32"
        }
      ],
      "name": "getRoleAdmin",
      "outputs": [
        {
          "internalType": "bytes32",
          "name": "",
          "type": "bytes32"
        }
      ],
      "stateMutability": "view",
      "type": "function"
    },
    {
      "inputs": [
        {
          "internalType": "bytes32",
          "name": "role",
          "type": "bytes32"
        },
        {
          "internalType": "address",
          "name": "account",
          "type": "address"
        }
      ],
      "name": "grantRole",
      "outputs": [],
      "stateMutability": "nonpayable",
      "type": "function"
    },
    {
      "inputs": [
        {
          "internalType": "bytes32",
          "name": "role",
          "type": "bytes32"
        },
        {
          "internalType": "address",
          "name": "account",
          "type": "address"
        }
      ],
      "name": "hasRole",
      "outputs": [
        {
          "internalType": "bool",
          "name": "",
          "type": "bool"
        }
      ],
      "stateMutability": "view",
      "type": "function"
    },
    {
      "inputs": [],
      "name": "mintWithBlueList",
      "outputs": [],
      "stateMutability": "nonpayable",
      "type": "function"
    },
    {
      "inputs": [],
      "name": "mintWithWhiteList",
      "outputs": [],
      "stateMutability": "nonpayable",
      "type": "function"
    },
    {
      "inputs": [
        {
          "internalType": "bytes32",
          "name": "role",
          "type": "bytes32"
        },
        {
          "internalType": "address",
          "name": "account",
          "type": "address"
        }
      ],
      "name": "renounceRole",
      "outputs": [],
      "stateMutability": "nonpayable",
      "type": "function"
    },
    {
      "inputs": [
        {
          "internalType": "bytes32",
          "name": "role",
          "type": "bytes32"
        },
        {
          "internalType": "address",
          "name": "account",
          "type": "address"
        }
      ],
      "name": "revokeRole",
      "outputs": [],
      "stateMutability": "nonpayable",
      "type": "function"
    },
    {
      "inputs": [
        {
          "internalType": "bytes4",
          "name": "interfaceId",
          "type": "bytes4"
        }
      ],
      "name": "supportsInterface",
      "outputs": [
        {
          "internalType": "bool",
          "name": "",
          "type": "bool"
        }
      ],
      "stateMutability": "view",
      "type": "function"
    }
  ],
  "bytecode": "0x60806040523480156200001157600080fd5b5060405162002aad38038062002aad833981810160405281019062000037919062000261565b80600160006101000a81548173ffffffffffffffffffffffffffffffffffffffff021916908373ffffffffffffffffffffffffffffffffffffffff1602179055506200008d6000801b336200009460201b60201c565b5062000293565b620000a682826200018560201b60201c565b6200018157600160008084815260200190815260200160002060000160008373ffffffffffffffffffffffffffffffffffffffff1673ffffffffffffffffffffffffffffffffffffffff16815260200190815260200160002060006101000a81548160ff02191690831515021790555062000126620001ef60201b60201c565b73ffffffffffffffffffffffffffffffffffffffff168173ffffffffffffffffffffffffffffffffffffffff16837f2f8788117e7eff1d82e926ec794901d17c78024a50270940304540a733656f0d60405160405180910390a45b5050565b600080600084815260200190815260200160002060000160008373ffffffffffffffffffffffffffffffffffffffff1673ffffffffffffffffffffffffffffffffffffffff16815260200190815260200160002060009054906101000a900460ff16905092915050565b600033905090565b600080fd5b600073ffffffffffffffffffffffffffffffffffffffff82169050919050565b60006200022982620001fc565b9050919050565b6200023b816200021c565b81146200024757600080fd5b50565b6000815190506200025b8162000230565b92915050565b6000602082840312156200027a5762000279620001f7565b5b60006200028a848285016200024a565b91505092915050565b61280a80620002a36000396000f3fe608060405234801561001057600080fd5b50600436106100b45760003560e01c80634921e4fb116100715780634921e4fb1461016557806369fe6c461461016f57806391d148541461018b578063a217fddf146101bb578063d138e938146101d9578063d547741f146101f5576100b4565b806301ffc9a7146100b957806311a22c56146100e9578063248a9ca3146100f35780632f2ff15d1461012357806336568abe1461013f57806340f84ce51461015b575b600080fd5b6100d360048036038101906100ce9190611b69565b610211565b6040516100e09190611bb1565b60405180910390f35b6100f161028b565b005b61010d60048036038101906101089190611c02565b61057b565b60405161011a9190611c3e565b60405180910390f35b61013d60048036038101906101389190611cb7565b61059a565b005b61015960048036038101906101549190611cb7565b6105bb565b005b61016361063e565b005b61016d610a1e565b005b61018960048036038101906101849190611e50565b610d4e565b005b6101a560048036038101906101a09190611cb7565b6110ca565b6040516101b29190611bb1565b60405180910390f35b6101c3611134565b6040516101d09190611c3e565b60405180910390f35b6101f360048036038101906101ee9190611e50565b61113b565b005b61020f600480360381019061020a9190611cb7565b6114b7565b005b60007f7965db0b000000000000000000000000000000000000000000000000000000007bffffffffffffffffffffffffffffffffffffffffffffffffffffffff1916827bffffffffffffffffffffffffffffffffffffffffffffffffffffffff191614806102845750610283826114d8565b5b9050919050565b600073ffffffffffffffffffffffffffffffffffffffff16600260003373ffffffffffffffffffffffffffffffffffffffff1673ffffffffffffffffffffffffffffffffffffffff16815260200190815260200160002060000160009054906101000a900473ffffffffffffffffffffffffffffffffffffffff1673ffffffffffffffffffffffffffffffffffffffff16141561035d576040517f08c379a000000000000000000000000000000000000000000000000000000000815260040161035490611f1c565b60405180910390fd5b60004262015180600260003373ffffffffffffffffffffffffffffffffffffffff1673ffffffffffffffffffffffffffffffffffffffff168152602001908152602001600020600101546103b19190611f75565b119050806103f4576040517f08c379a00000000000000000000000000000000000000000000000000000000081526004016103eb90612017565b60405180910390fd5b60006103fe611542565b9050600160009054906101000a900473ffffffffffffffffffffffffffffffffffffffff1673ffffffffffffffffffffffffffffffffffffffff166340c10f1933836040518363ffffffff1660e01b815260040161045d929190612055565b600060405180830381600087803b15801561047757600080fd5b505af115801561048b573d6000803e3d6000fd5b505050506040518060600160405280600073ffffffffffffffffffffffffffffffffffffffff16815260200142815260200160001515815250600260003373ffffffffffffffffffffffffffffffffffffffff1673ffffffffffffffffffffffffffffffffffffffff16815260200190815260200160002060008201518160000160006101000a81548173ffffffffffffffffffffffffffffffffffffffff021916908373ffffffffffffffffffffffffffffffffffffffff1602179055506020820151816001015560408201518160020160006101000a81548160ff0219169083151502179055509050505050565b6000806000838152602001908152602001600020600101549050919050565b6105a38261057b565b6105ac816115a0565b6105b683836115b4565b505050565b6105c3611694565b73ffffffffffffffffffffffffffffffffffffffff168173ffffffffffffffffffffffffffffffffffffffff1614610630576040517f08c379a0000000000000000000000000000000000000000000000000000000008152600401610627906120f0565b60405180910390fd5b61063a828261169c565b5050565b6000600160009054906101000a900473ffffffffffffffffffffffffffffffffffffffff1673ffffffffffffffffffffffffffffffffffffffff166370a08231336040518263ffffffff1660e01b815260040161069b9190612110565b602060405180830381600087803b1580156106b557600080fd5b505af11580156106c9573d6000803e3d6000fd5b505050506040513d601f19601f820116820180604052508101906106ed9190612157565b9050683635c9adc5dea0000081101561073b576040517f08c379a0000000000000000000000000000000000000000000000000000000008152600401610732906121f6565b60405180910390fd5b600073ffffffffffffffffffffffffffffffffffffffff16600260003373ffffffffffffffffffffffffffffffffffffffff1673ffffffffffffffffffffffffffffffffffffffff16815260200190815260200160002060000160009054906101000a900473ffffffffffffffffffffffffffffffffffffffff1673ffffffffffffffffffffffffffffffffffffffff161461080c576040517f08c379a000000000000000000000000000000000000000000000000000000000815260040161080390612262565b60405180910390fd5b600260003373ffffffffffffffffffffffffffffffffffffffff1673ffffffffffffffffffffffffffffffffffffffff16815260200190815260200160002060020160009054906101000a900460ff161561089c576040517f08c379a000000000000000000000000000000000000000000000000000000000815260040161089390612262565b60405180910390fd5b600160009054906101000a900473ffffffffffffffffffffffffffffffffffffffff1673ffffffffffffffffffffffffffffffffffffffff16639dc29fac33683635c9adc5dea000006040518363ffffffff1660e01b8152600401610902929190612055565b600060405180830381600087803b15801561091c57600080fd5b505af1158015610930573d6000803e3d6000fd5b5050505060405180606001604052803373ffffffffffffffffffffffffffffffffffffffff16815260200142815260200160011515815250600260003373ffffffffffffffffffffffffffffffffffffffff1673ffffffffffffffffffffffffffffffffffffffff16815260200190815260200160002060008201518160000160006101000a81548173ffffffffffffffffffffffffffffffffffffffff021916908373ffffffffffffffffffffffffffffffffffffffff1602179055506020820151816001015560408201518160020160006101000a81548160ff02191690831515021790555090505050565b600073ffffffffffffffffffffffffffffffffffffffff16600360003373ffffffffffffffffffffffffffffffffffffffff1673ffffffffffffffffffffffffffffffffffffffff16815260200190815260200160002060000160009054906101000a900473ffffffffffffffffffffffffffffffffffffffff1673ffffffffffffffffffffffffffffffffffffffff161415610af0576040517f08c379a0000000000000000000000000000000000000000000000000000000008152600401610ae7906122ce565b60405180910390fd5b600360003373ffffffffffffffffffffffffffffffffffffffff1673ffffffffffffffffffffffffffffffffffffffff16815260200190815260200160002060020160009054906101000a900460ff16610b7f576040517f08c379a0000000000000000000000000000000000000000000000000000000008152600401610b76906122ce565b60405180910390fd5b6000600360003373ffffffffffffffffffffffffffffffffffffffff1673ffffffffffffffffffffffffffffffffffffffff1681526020019081526020016000206001015490506000610bd18261177d565b9050600160009054906101000a900473ffffffffffffffffffffffffffffffffffffffff1673ffffffffffffffffffffffffffffffffffffffff166340c10f1933836040518363ffffffff1660e01b8152600401610c30929190612055565b600060405180830381600087803b158015610c4a57600080fd5b505af1158015610c5e573d6000803e3d6000fd5b505050506040518060600160405280600073ffffffffffffffffffffffffffffffffffffffff16815260200142815260200160001515815250600360003373ffffffffffffffffffffffffffffffffffffffff1673ffffffffffffffffffffffffffffffffffffffff16815260200190815260200160002060008201518160000160006101000a81548173ffffffffffffffffffffffffffffffffffffffff021916908373ffffffffffffffffffffffffffffffffffffffff1602179055506020820151816001015560408201518160020160006101000a81548160ff0219169083151502179055509050505050565b6000801b610d5b816115a0565b60008251905060005b818110156110c457600073ffffffffffffffffffffffffffffffffffffffff16600360003373ffffffffffffffffffffffffffffffffffffffff1673ffffffffffffffffffffffffffffffffffffffff16815260200190815260200160002060000160009054906101000a900473ffffffffffffffffffffffffffffffffffffffff1673ffffffffffffffffffffffffffffffffffffffff161415610f295760006040518060600160405280868481518110610e2357610e226122ee565b5b602002602001015173ffffffffffffffffffffffffffffffffffffffff1681526020014281526020016001151581525090508060036000878581518110610e6d57610e6c6122ee565b5b602002602001015173ffffffffffffffffffffffffffffffffffffffff1673ffffffffffffffffffffffffffffffffffffffff16815260200190815260200160002060008201518160000160006101000a81548173ffffffffffffffffffffffffffffffffffffffff021916908373ffffffffffffffffffffffffffffffffffffffff1602179055506020820151816001015560408201518160020160006101000a81548160ff021916908315150217905550905050506110b1565b4262015180600360003373ffffffffffffffffffffffffffffffffffffffff1673ffffffffffffffffffffffffffffffffffffffff16815260200190815260200160002060010154610f7b9190611f75565b1080610fd45750600360003373ffffffffffffffffffffffffffffffffffffffff1673ffffffffffffffffffffffffffffffffffffffff16815260200190815260200160002060020160009054906101000a900460ff16155b156110b057600160036000868481518110610ff257610ff16122ee565b5b602002602001015173ffffffffffffffffffffffffffffffffffffffff1673ffffffffffffffffffffffffffffffffffffffff16815260200190815260200160002060020160006101000a81548160ff0219169083151502179055504260036000868481518110611066576110656122ee565b5b602002602001015173ffffffffffffffffffffffffffffffffffffffff1673ffffffffffffffffffffffffffffffffffffffff168152602001908152602001600020600101819055505b5b80806110bc9061231d565b915050610d64565b50505050565b600080600084815260200190815260200160002060000160008373ffffffffffffffffffffffffffffffffffffffff1673ffffffffffffffffffffffffffffffffffffffff16815260200190815260200160002060009054906101000a900460ff16905092915050565b6000801b81565b6000801b611148816115a0565b60008251905060005b818110156114b157600073ffffffffffffffffffffffffffffffffffffffff16600260003373ffffffffffffffffffffffffffffffffffffffff1673ffffffffffffffffffffffffffffffffffffffff16815260200190815260200160002060000160009054906101000a900473ffffffffffffffffffffffffffffffffffffffff1673ffffffffffffffffffffffffffffffffffffffff16141561131657600060405180606001604052808684815181106112105761120f6122ee565b5b602002602001015173ffffffffffffffffffffffffffffffffffffffff168152602001428152602001600115158152509050806002600087858151811061125a576112596122ee565b5b602002602001015173ffffffffffffffffffffffffffffffffffffffff1673ffffffffffffffffffffffffffffffffffffffff16815260200190815260200160002060008201518160000160006101000a81548173ffffffffffffffffffffffffffffffffffffffff021916908373ffffffffffffffffffffffffffffffffffffffff1602179055506020820151816001015560408201518160020160006101000a81548160ff0219169083151502179055509050505061149e565b4262015180600260003373ffffffffffffffffffffffffffffffffffffffff1673ffffffffffffffffffffffffffffffffffffffff168152602001908152602001600020600101546113689190611f75565b10806113c15750600260003373ffffffffffffffffffffffffffffffffffffffff1673ffffffffffffffffffffffffffffffffffffffff16815260200190815260200160002060020160009054906101000a900460ff16155b1561149d576001600260008684815181106113df576113de6122ee565b5b602002602001015173ffffffffffffffffffffffffffffffffffffffff1673ffffffffffffffffffffffffffffffffffffffff16815260200190815260200160002060020160006101000a81548160ff0219169083151502179055504260026000868481518110611453576114526122ee565b5b602002602001015173ffffffffffffffffffffffffffffffffffffffff1673ffffffffffffffffffffffffffffffffffffffff168152602001908152602001600020600101819055505b5b80806114a99061231d565b915050611151565b50505050565b6114c08261057b565b6114c9816115a0565b6114d3838361169c565b505050565b60007f01ffc9a7000000000000000000000000000000000000000000000000000000007bffffffffffffffffffffffffffffffffffffffffffffffffffffffff1916827bffffffffffffffffffffffffffffffffffffffffffffffffffffffff1916149050919050565b600080600090506103e8333042604051602001611561939291906123cf565b6040516020818303038152906040528051906020012060001c611584919061243b565b9050670de0b6b3a76400008161159a919061246c565b91505090565b6115b1816115ac611694565b611824565b50565b6115be82826110ca565b61169057600160008084815260200190815260200160002060000160008373ffffffffffffffffffffffffffffffffffffffff1673ffffffffffffffffffffffffffffffffffffffff16815260200190815260200160002060006101000a81548160ff021916908315150217905550611635611694565b73ffffffffffffffffffffffffffffffffffffffff168173ffffffffffffffffffffffffffffffffffffffff16837f2f8788117e7eff1d82e926ec794901d17c78024a50270940304540a733656f0d60405160405180910390a45b5050565b600033905090565b6116a682826110ca565b1561177957600080600084815260200190815260200160002060000160008373ffffffffffffffffffffffffffffffffffffffff1673ffffffffffffffffffffffffffffffffffffffff16815260200190815260200160002060006101000a81548160ff02191690831515021790555061171e611694565b73ffffffffffffffffffffffffffffffffffffffff168173ffffffffffffffffffffffffffffffffffffffff16837ff6391f5c32d9c69d2a47ea670b442974b53935d1edc7fd64eb21e047a839171b60405160405180910390a45b5050565b600080610e1090506000834261179391906124c6565b9050808210156117d8576040517f08c379a00000000000000000000000000000000000000000000000000000000081526004016117cf90612546565b60405180910390fd5b600081836117e691906124c6565b9050600081836117f69190611f75565b69021e19e0c9bab24000008361180c919061246c565b6118169190612566565b905080945050505050919050565b61182e82826110ca565b6118bd576118538173ffffffffffffffffffffffffffffffffffffffff1660146118c1565b6118618360001c60206118c1565b6040516020016118729291906126a9565b6040516020818303038152906040526040517f08c379a00000000000000000000000000000000000000000000000000000000081526004016118b4919061271c565b60405180910390fd5b5050565b6060600060028360026118d4919061246c565b6118de9190611f75565b67ffffffffffffffff8111156118f7576118f6611d0d565b5b6040519080825280601f01601f1916602001820160405280156119295781602001600182028036833780820191505090505b5090507f300000000000000000000000000000000000000000000000000000000000000081600081518110611961576119606122ee565b5b60200101907effffffffffffffffffffffffffffffffffffffffffffffffffffffffffffff1916908160001a9053507f7800000000000000000000000000000000000000000000000000000000000000816001815181106119c5576119c46122ee565b5b60200101907effffffffffffffffffffffffffffffffffffffffffffffffffffffffffffff1916908160001a90535060006001846002611a05919061246c565b611a0f9190611f75565b90505b6001811115611aaf577f3031323334353637383961626364656600000000000000000000000000000000600f861660108110611a5157611a506122ee565b5b1a60f81b828281518110611a6857611a676122ee565b5b60200101907effffffffffffffffffffffffffffffffffffffffffffffffffffffffffffff1916908160001a905350600485901c945080611aa89061273e565b9050611a12565b5060008414611af3576040517f08c379a0000000000000000000000000000000000000000000000000000000008152600401611aea906127b4565b60405180910390fd5b8091505092915050565b6000604051905090565b600080fd5b600080fd5b60007fffffffff0000000000000000000000000000000000000000000000000000000082169050919050565b611b4681611b11565b8114611b5157600080fd5b50565b600081359050611b6381611b3d565b92915050565b600060208284031215611b7f57611b7e611b07565b5b6000611b8d84828501611b54565b91505092915050565b60008115159050919050565b611bab81611b96565b82525050565b6000602082019050611bc66000830184611ba2565b92915050565b6000819050919050565b611bdf81611bcc565b8114611bea57600080fd5b50565b600081359050611bfc81611bd6565b92915050565b600060208284031215611c1857611c17611b07565b5b6000611c2684828501611bed565b91505092915050565b611c3881611bcc565b82525050565b6000602082019050611c536000830184611c2f565b92915050565b600073ffffffffffffffffffffffffffffffffffffffff82169050919050565b6000611c8482611c59565b9050919050565b611c9481611c79565b8114611c9f57600080fd5b50565b600081359050611cb181611c8b565b92915050565b60008060408385031215611cce57611ccd611b07565b5b6000611cdc85828601611bed565b9250506020611ced85828601611ca2565b9150509250929050565b600080fd5b6000601f19601f8301169050919050565b7f4e487b7100000000000000000000000000000000000000000000000000000000600052604160045260246000fd5b611d4582611cfc565b810181811067ffffffffffffffff82111715611d6457611d63611d0d565b5b80604052505050565b6000611d77611afd565b9050611d838282611d3c565b919050565b600067ffffffffffffffff821115611da357611da2611d0d565b5b602082029050602081019050919050565b600080fd5b6000611dcc611dc784611d88565b611d6d565b90508083825260208201905060208402830185811115611def57611dee611db4565b5b835b81811015611e185780611e048882611ca2565b845260208401935050602081019050611df1565b5050509392505050565b600082601f830112611e3757611e36611cf7565b5b8135611e47848260208601611db9565b91505092915050565b600060208284031215611e6657611e65611b07565b5b600082013567ffffffffffffffff811115611e8457611e83611b0c565b5b611e9084828501611e22565b91505092915050565b600082825260208201905092915050565b7f5061727469636970616e7465206e6f206573746120656e2077686974656c697360008201527f7400000000000000000000000000000000000000000000000000000000000000602082015250565b6000611f06602183611e99565b9150611f1182611eaa565b604082019050919050565b60006020820190508181036000830152611f3581611ef9565b9050919050565b6000819050919050565b7f4e487b7100000000000000000000000000000000000000000000000000000000600052601160045260246000fd5b6000611f8082611f3c565b9150611f8b83611f3c565b9250827fffffffffffffffffffffffffffffffffffffffffffffffffffffffffffffffff03821115611fc057611fbf611f46565b5b828201905092915050565b7f50617361726f6e206d617320646520323420686f726173000000000000000000600082015250565b6000612001601783611e99565b915061200c82611fcb565b602082019050919050565b6000602082019050818103600083015261203081611ff4565b9050919050565b61204081611c79565b82525050565b61204f81611f3c565b82525050565b600060408201905061206a6000830185612037565b6120776020830184612046565b9392505050565b7f416363657373436f6e74726f6c3a2063616e206f6e6c792072656e6f756e636560008201527f20726f6c657320666f722073656c660000000000000000000000000000000000602082015250565b60006120da602f83611e99565b91506120e58261207e565b604082019050919050565b60006020820190508181036000830152612109816120cd565b9050919050565b60006020820190506121256000830184612037565b92915050565b61213481611f3c565b811461213f57600080fd5b50565b6000815190506121518161212b565b92915050565b60006020828403121561216d5761216c611b07565b5b600061217b84828501612142565b91505092915050565b7f4e6f207469656e6520737566696369656e74657320746f6b656e73207061726160008201527f207175656d617200000000000000000000000000000000000000000000000000602082015250565b60006121e0602783611e99565b91506121eb82612184565b604082019050919050565b6000602082019050818103600083015261220f816121d3565b9050919050565b7f4573746120656e206c6973746120626c616e6361000000000000000000000000600082015250565b600061224c601483611e99565b915061225782612216565b602082019050919050565b6000602082019050818103600083015261227b8161223f565b9050919050565b7f5061727469636970616e7465206e6f206573746120656e20626c75656c697374600082015250565b60006122b8602083611e99565b91506122c382612282565b602082019050919050565b600060208201905081810360008301526122e7816122ab565b9050919050565b7f4e487b7100000000000000000000000000000000000000000000000000000000600052603260045260246000fd5b600061232882611f3c565b91507fffffffffffffffffffffffffffffffffffffffffffffffffffffffffffffffff82141561235b5761235a611f46565b5b600182019050919050565b60008160601b9050919050565b600061237e82612366565b9050919050565b600061239082612373565b9050919050565b6123a86123a382611c79565b612385565b82525050565b6000819050919050565b6123c96123c482611f3c565b6123ae565b82525050565b60006123db8286612397565b6014820191506123eb8285612397565b6014820191506123fb82846123b8565b602082019150819050949350505050565b7f4e487b7100000000000000000000000000000000000000000000000000000000600052601260045260246000fd5b600061244682611f3c565b915061245183611f3c565b9250826124615761246061240c565b5b828206905092915050565b600061247782611f3c565b915061248283611f3c565b9250817fffffffffffffffffffffffffffffffffffffffffffffffffffffffffffffffff04831182151516156124bb576124ba611f46565b5b828202905092915050565b60006124d182611f3c565b91506124dc83611f3c565b9250828210156124ef576124ee611f46565b5b828203905092915050565b7f50617361726f6e206d6173206465203630206d696e75746f7300000000000000600082015250565b6000612530601983611e99565b915061253b826124fa565b602082019050919050565b6000602082019050818103600083015261255f81612523565b9050919050565b600061257182611f3c565b915061257c83611f3c565b92508261258c5761258b61240c565b5b828204905092915050565b600081905092915050565b7f416363657373436f6e74726f6c3a206163636f756e7420000000000000000000600082015250565b60006125d8601783612597565b91506125e3826125a2565b601782019050919050565b600081519050919050565b60005b838110156126175780820151818401526020810190506125fc565b83811115612626576000848401525b50505050565b6000612637826125ee565b6126418185612597565b93506126518185602086016125f9565b80840191505092915050565b7f206973206d697373696e6720726f6c6520000000000000000000000000000000600082015250565b6000612693601183612597565b915061269e8261265d565b601182019050919050565b60006126b4826125cb565b91506126c0828561262c565b91506126cb82612686565b91506126d7828461262c565b91508190509392505050565b60006126ee826125ee565b6126f88185611e99565b93506127088185602086016125f9565b61271181611cfc565b840191505092915050565b6000602082019050818103600083015261273681846126e3565b905092915050565b600061274982611f3c565b9150600082141561275d5761275c611f46565b5b600182039050919050565b7f537472696e67733a20686578206c656e67746820696e73756666696369656e74600082015250565b600061279e602083611e99565b91506127a982612768565b602082019050919050565b600060208201905081810360008301526127cd81612791565b905091905056fea264697066735822122083f32edaf4af9c0b26d29b00a05beff0e214f79d8813f740832ef6022b83f10664736f6c63430008090033",
  "linkReferences": {},
  "deployedLinkReferences": {}
}