{
  "_format": "hh-sol-artifact-1",
  "contractName": "Airdrop",
  "sourceName": "contracts/learning/Airdrop.sol",
  "abi": [
    {
      "inputs": [
        {
          "internalType": "address",
          "name": "_tokenAddress",
          "type": "address"
        }
      ],
      "stateMutability": "nonpayable",
      "type": "constructor"
    },
    {
      "anonymous": false,
      "inputs": [
        {
          "indexed": true,
          "internalType": "bytes32",
          "name": "role",
          "type": "bytes32"
        },
        {
          "indexed": true,
          "internalType": "bytes32",
          "name": "previousAdminRole",
          "type": "bytes32"
        },
        {
          "indexed": true,
          "internalType": "bytes32",
          "name": "newAdminRole",
          "type": "bytes32"
        }
      ],
      "name": "RoleAdminChanged",
      "type": "event"
    },
    {
      "anonymous": false,
      "inputs": [
        {
          "indexed": true,
          "internalType": "bytes32",
          "name": "role",
          "type": "bytes32"
        },
        {
          "indexed": true,
          "internalType": "address",
          "name": "account",
          "type": "address"
        },
        {
          "indexed": true,
          "internalType": "address",
          "name": "sender",
          "type": "address"
        }
      ],
      "name": "RoleGranted",
      "type": "event"
    },
    {
      "anonymous": false,
      "inputs": [
        {
          "indexed": true,
          "internalType": "bytes32",
          "name": "role",
          "type": "bytes32"
        },
        {
          "indexed": true,
          "internalType": "address",
          "name": "account",
          "type": "address"
        },
        {
          "indexed": true,
          "internalType": "address",
          "name": "sender",
          "type": "address"
        }
      ],
      "name": "RoleRevoked",
      "type": "event"
    },
    {
      "inputs": [],
      "name": "DEFAULT_ADMIN_ROLE",
      "outputs": [
        {
          "internalType": "bytes32",
          "name": "",
          "type": "bytes32"
        }
      ],
      "stateMutability": "view",
      "type": "function"
    },
    {
      "inputs": [
        {
          "internalType": "address[]",
          "name": "_addresses",
          "type": "address[]"
        }
      ],
      "name": "addToBlueListBatch",
      "outputs": [],
      "stateMutability": "nonpayable",
      "type": "function"
    },
    {
      "inputs": [
        {
          "internalType": "address[]",
          "name": "_addresses",
          "type": "address[]"
        }
      ],
      "name": "addToWhiteListBatch",
      "outputs": [],
      "stateMutability": "nonpayable",
      "type": "function"
    },
    {
      "inputs": [],
      "name": "burnMyTokensToParticipate",
      "outputs": [],
      "stateMutability": "nonpayable",
      "type": "function"
    },
    {
      "inputs": [
        {
          "internalType": "bytes32",
          "name": "role",
          "type": "bytes32"
        }
      ],
      "name": "getRoleAdmin",
      "outputs": [
        {
          "internalType": "bytes32",
          "name": "",
          "type": "bytes32"
        }
      ],
      "stateMutability": "view",
      "type": "function"
    },
    {
      "inputs": [
        {
          "internalType": "bytes32",
          "name": "role",
          "type": "bytes32"
        },
        {
          "internalType": "address",
          "name": "account",
          "type": "address"
        }
      ],
      "name": "grantRole",
      "outputs": [],
      "stateMutability": "nonpayable",
      "type": "function"
    },
    {
      "inputs": [
        {
          "internalType": "bytes32",
          "name": "role",
          "type": "bytes32"
        },
        {
          "internalType": "address",
          "name": "account",
          "type": "address"
        }
      ],
      "name": "hasRole",
      "outputs": [
        {
          "internalType": "bool",
          "name": "",
          "type": "bool"
        }
      ],
      "stateMutability": "view",
      "type": "function"
    },
    {
      "inputs": [],
      "name": "mintWithBlueList",
      "outputs": [],
      "stateMutability": "nonpayable",
      "type": "function"
    },
    {
      "inputs": [],
      "name": "mintWithWhiteList",
      "outputs": [],
      "stateMutability": "nonpayable",
      "type": "function"
    },
    {
      "inputs": [
        {
          "internalType": "bytes32",
          "name": "role",
          "type": "bytes32"
        },
        {
          "internalType": "address",
          "name": "account",
          "type": "address"
        }
      ],
      "name": "renounceRole",
      "outputs": [],
      "stateMutability": "nonpayable",
      "type": "function"
    },
    {
      "inputs": [
        {
          "internalType": "bytes32",
          "name": "role",
          "type": "bytes32"
        },
        {
          "internalType": "address",
          "name": "account",
          "type": "address"
        }
      ],
      "name": "revokeRole",
      "outputs": [],
      "stateMutability": "nonpayable",
      "type": "function"
    },
    {
      "inputs": [
        {
          "internalType": "bytes4",
          "name": "interfaceId",
          "type": "bytes4"
        }
      ],
      "name": "supportsInterface",
      "outputs": [
        {
          "internalType": "bool",
          "name": "",
          "type": "bool"
        }
      ],
      "stateMutability": "view",
      "type": "function"
    }
  ],
  "bytecode": "0x60806040523480156200001157600080fd5b506040516200228438038062002284833981810160405281019062000037919062000261565b80600160006101000a81548173ffffffffffffffffffffffffffffffffffffffff021916908373ffffffffffffffffffffffffffffffffffffffff1602179055506200008d6000801b336200009460201b60201c565b5062000293565b620000a682826200018560201b60201c565b6200018157600160008084815260200190815260200160002060000160008373ffffffffffffffffffffffffffffffffffffffff1673ffffffffffffffffffffffffffffffffffffffff16815260200190815260200160002060006101000a81548160ff02191690831515021790555062000126620001ef60201b60201c565b73ffffffffffffffffffffffffffffffffffffffff168173ffffffffffffffffffffffffffffffffffffffff16837f2f8788117e7eff1d82e926ec794901d17c78024a50270940304540a733656f0d60405160405180910390a45b5050565b600080600084815260200190815260200160002060000160008373ffffffffffffffffffffffffffffffffffffffff1673ffffffffffffffffffffffffffffffffffffffff16815260200190815260200160002060009054906101000a900460ff16905092915050565b600033905090565b600080fd5b600073ffffffffffffffffffffffffffffffffffffffff82169050919050565b60006200022982620001fc565b9050919050565b6200023b816200021c565b81146200024757600080fd5b50565b6000815190506200025b8162000230565b92915050565b6000602082840312156200027a5762000279620001f7565b5b60006200028a848285016200024a565b91505092915050565b611fe180620002a36000396000f3fe608060405234801561001057600080fd5b50600436106100b45760003560e01c80634921e4fb116100715780634921e4fb1461016557806369fe6c461461016f57806391d148541461018b578063a217fddf146101bb578063d138e938146101d9578063d547741f146101f5576100b4565b806301ffc9a7146100b957806311a22c56146100e9578063248a9ca3146100f35780632f2ff15d1461012357806336568abe1461013f57806340f84ce51461015b575b600080fd5b6100d360048036038101906100ce9190611437565b610211565b6040516100e0919061147f565b60405180910390f35b6100f161028b565b005b61010d600480360381019061010891906114d0565b610501565b60405161011a919061150c565b60405180910390f35b61013d60048036038101906101389190611585565b610520565b005b61015960048036038101906101549190611585565b610541565b005b6101636105c4565b005b61016d61079c565b005b6101896004803603810190610184919061171e565b61097c565b005b6101a560048036038101906101a09190611585565b610b6f565b6040516101b2919061147f565b60405180910390f35b6101c3610bd9565b6040516101d0919061150c565b60405180910390f35b6101f360048036038101906101ee919061171e565b610be0565b005b61020f600480360381019061020a9190611585565b610dd3565b005b60007f7965db0b000000000000000000000000000000000000000000000000000000007bffffffffffffffffffffffffffffffffffffffffffffffffffffffff1916827bffffffffffffffffffffffffffffffffffffffffffffffffffffffff19161480610284575061028382610df4565b5b9050919050565b600260003373ffffffffffffffffffffffffffffffffffffffff1673ffffffffffffffffffffffffffffffffffffffff16815260200190815260200160002060009054906101000a900460ff16610317576040517f08c379a000000000000000000000000000000000000000000000000000000000815260040161030e906117ea565b60405180910390fd5b60004262015180600360003373ffffffffffffffffffffffffffffffffffffffff1673ffffffffffffffffffffffffffffffffffffffff1681526020019081526020016000206001015461036b9190611843565b10905080156103af576040517f08c379a00000000000000000000000000000000000000000000000000000000081526004016103a6906118e5565b60405180910390fd5b60006103b9610e5e565b9050600160009054906101000a900473ffffffffffffffffffffffffffffffffffffffff1673ffffffffffffffffffffffffffffffffffffffff166340c10f1933836040518363ffffffff1660e01b8152600401610418929190611923565b600060405180830381600087803b15801561043257600080fd5b505af1158015610446573d6000803e3d6000fd5b505050506000600260003373ffffffffffffffffffffffffffffffffffffffff1673ffffffffffffffffffffffffffffffffffffffff16815260200190815260200160002060006101000a81548160ff0219169083151502179055506000600360003373ffffffffffffffffffffffffffffffffffffffff1673ffffffffffffffffffffffffffffffffffffffff16815260200190815260200160002060020160016101000a81548160ff0219169083151502179055505050565b6000806000838152602001908152602001600020600101549050919050565b61052982610501565b61053281610ebc565b61053c8383610ed0565b505050565b610549610fb0565b73ffffffffffffffffffffffffffffffffffffffff168173ffffffffffffffffffffffffffffffffffffffff16146105b6576040517f08c379a00000000000000000000000000000000000000000000000000000000081526004016105ad906119be565b60405180910390fd5b6105c08282610fb8565b5050565b6000600160009054906101000a900473ffffffffffffffffffffffffffffffffffffffff1673ffffffffffffffffffffffffffffffffffffffff166370a08231336040518263ffffffff1660e01b815260040161062191906119de565b602060405180830381600087803b15801561063b57600080fd5b505af115801561064f573d6000803e3d6000fd5b505050506040513d601f19601f820116820180604052508101906106739190611a25565b9050600260003373ffffffffffffffffffffffffffffffffffffffff1673ffffffffffffffffffffffffffffffffffffffff16815260200190815260200160002060009054906101000a900460ff16610701576040517f08c379a00000000000000000000000000000000000000000000000000000000081526004016106f890611a9e565b60405180910390fd5b600160009054906101000a900473ffffffffffffffffffffffffffffffffffffffff1673ffffffffffffffffffffffffffffffffffffffff16639dc29fac33683635c9adc5dea000006040518363ffffffff1660e01b8152600401610767929190611923565b600060405180830381600087803b15801561078157600080fd5b505af1158015610795573d6000803e3d6000fd5b5050505050565b600460003373ffffffffffffffffffffffffffffffffffffffff1673ffffffffffffffffffffffffffffffffffffffff16815260200190815260200160002060009054906101000a900460ff16610828576040517f08c379a000000000000000000000000000000000000000000000000000000000815260040161081f90611b0a565b60405180910390fd5b60008061083482611099565b9050600160009054906101000a900473ffffffffffffffffffffffffffffffffffffffff1673ffffffffffffffffffffffffffffffffffffffff166340c10f1933836040518363ffffffff1660e01b8152600401610893929190611923565b600060405180830381600087803b1580156108ad57600080fd5b505af11580156108c1573d6000803e3d6000fd5b505050506000600460003373ffffffffffffffffffffffffffffffffffffffff1673ffffffffffffffffffffffffffffffffffffffff16815260200190815260200160002060006101000a81548160ff0219169083151502179055506000600360003373ffffffffffffffffffffffffffffffffffffffff1673ffffffffffffffffffffffffffffffffffffffff16815260200190815260200160002060020160006101000a81548160ff0219169083151502179055505050565b6000801b61098981610ebc565b60008251905060005b81811015610b69576001600460008684815181106109b3576109b2611b2a565b5b602002602001015173ffffffffffffffffffffffffffffffffffffffff1673ffffffffffffffffffffffffffffffffffffffff16815260200190815260200160002060006101000a81548160ff02191690831515021790555060006040518060800160405280868481518110610a2c57610a2b611b2a565b5b602002602001015173ffffffffffffffffffffffffffffffffffffffff1681526020014281526020016000151581526020016001151581525090508060036000878581518110610a7f57610a7e611b2a565b5b602002602001015173ffffffffffffffffffffffffffffffffffffffff1673ffffffffffffffffffffffffffffffffffffffff16815260200190815260200160002060008201518160000160006101000a81548173ffffffffffffffffffffffffffffffffffffffff021916908373ffffffffffffffffffffffffffffffffffffffff1602179055506020820151816001015560408201518160020160006101000a81548160ff02191690831515021790555060608201518160020160016101000a81548160ff021916908315150217905550905050508080610b6190611b59565b915050610992565b50505050565b600080600084815260200190815260200160002060000160008373ffffffffffffffffffffffffffffffffffffffff1673ffffffffffffffffffffffffffffffffffffffff16815260200190815260200160002060009054906101000a900460ff16905092915050565b6000801b81565b6000801b610bed81610ebc565b60008251905060005b81811015610dcd57600160026000868481518110610c1757610c16611b2a565b5b602002602001015173ffffffffffffffffffffffffffffffffffffffff1673ffffffffffffffffffffffffffffffffffffffff16815260200190815260200160002060006101000a81548160ff02191690831515021790555060006040518060800160405280868481518110610c9057610c8f611b2a565b5b602002602001015173ffffffffffffffffffffffffffffffffffffffff1681526020014281526020016001151581526020016000151581525090508060036000878581518110610ce357610ce2611b2a565b5b602002602001015173ffffffffffffffffffffffffffffffffffffffff1673ffffffffffffffffffffffffffffffffffffffff16815260200190815260200160002060008201518160000160006101000a81548173ffffffffffffffffffffffffffffffffffffffff021916908373ffffffffffffffffffffffffffffffffffffffff1602179055506020820151816001015560408201518160020160006101000a81548160ff02191690831515021790555060608201518160020160016101000a81548160ff021916908315150217905550905050508080610dc590611b59565b915050610bf6565b50505050565b610ddc82610501565b610de581610ebc565b610def8383610fb8565b505050565b60007f01ffc9a7000000000000000000000000000000000000000000000000000000007bffffffffffffffffffffffffffffffffffffffffffffffffffffffff1916827bffffffffffffffffffffffffffffffffffffffffffffffffffffffff1916149050919050565b600080600090506103e8333042604051602001610e7d93929190611c0b565b6040516020818303038152906040528051906020012060001c610ea09190611c77565b9050670de0b6b3a764000081610eb69190611ca8565b91505090565b610ecd81610ec8610fb0565b6110f2565b50565b610eda8282610b6f565b610fac57600160008084815260200190815260200160002060000160008373ffffffffffffffffffffffffffffffffffffffff1673ffffffffffffffffffffffffffffffffffffffff16815260200190815260200160002060006101000a81548160ff021916908315150217905550610f51610fb0565b73ffffffffffffffffffffffffffffffffffffffff168173ffffffffffffffffffffffffffffffffffffffff16837f2f8788117e7eff1d82e926ec794901d17c78024a50270940304540a733656f0d60405160405180910390a45b5050565b600033905090565b610fc28282610b6f565b1561109557600080600084815260200190815260200160002060000160008373ffffffffffffffffffffffffffffffffffffffff1673ffffffffffffffffffffffffffffffffffffffff16815260200190815260200160002060006101000a81548160ff02191690831515021790555061103a610fb0565b73ffffffffffffffffffffffffffffffffffffffff168173ffffffffffffffffffffffffffffffffffffffff16837ff6391f5c32d9c69d2a47ea670b442974b53935d1edc7fd64eb21e047a839171b60405160405180910390a45b5050565b600080610e10905060008082116110e5576040517f08c379a00000000000000000000000000000000000000000000000000000000081526004016110dc90611d4e565b60405180910390fd5b6000809350505050919050565b6110fc8282610b6f565b61118b576111218173ffffffffffffffffffffffffffffffffffffffff16601461118f565b61112f8360001c602061118f565b604051602001611140929190611e80565b6040516020818303038152906040526040517f08c379a00000000000000000000000000000000000000000000000000000000081526004016111829190611ef3565b60405180910390fd5b5050565b6060600060028360026111a29190611ca8565b6111ac9190611843565b67ffffffffffffffff8111156111c5576111c46115db565b5b6040519080825280601f01601f1916602001820160405280156111f75781602001600182028036833780820191505090505b5090507f30000000000000000000000000000000000000000000000000000000000000008160008151811061122f5761122e611b2a565b5b60200101907effffffffffffffffffffffffffffffffffffffffffffffffffffffffffffff1916908160001a9053507f78000000000000000000000000000000000000000000000000000000000000008160018151811061129357611292611b2a565b5b60200101907effffffffffffffffffffffffffffffffffffffffffffffffffffffffffffff1916908160001a905350600060018460026112d39190611ca8565b6112dd9190611843565b90505b600181111561137d577f3031323334353637383961626364656600000000000000000000000000000000600f86166010811061131f5761131e611b2a565b5b1a60f81b82828151811061133657611335611b2a565b5b60200101907effffffffffffffffffffffffffffffffffffffffffffffffffffffffffffff1916908160001a905350600485901c94508061137690611f15565b90506112e0565b50600084146113c1576040517f08c379a00000000000000000000000000000000000000000000000000000000081526004016113b890611f8b565b60405180910390fd5b8091505092915050565b6000604051905090565b600080fd5b600080fd5b60007fffffffff0000000000000000000000000000000000000000000000000000000082169050919050565b611414816113df565b811461141f57600080fd5b50565b6000813590506114318161140b565b92915050565b60006020828403121561144d5761144c6113d5565b5b600061145b84828501611422565b91505092915050565b60008115159050919050565b61147981611464565b82525050565b60006020820190506114946000830184611470565b92915050565b6000819050919050565b6114ad8161149a565b81146114b857600080fd5b50565b6000813590506114ca816114a4565b92915050565b6000602082840312156114e6576114e56113d5565b5b60006114f4848285016114bb565b91505092915050565b6115068161149a565b82525050565b600060208201905061152160008301846114fd565b92915050565b600073ffffffffffffffffffffffffffffffffffffffff82169050919050565b600061155282611527565b9050919050565b61156281611547565b811461156d57600080fd5b50565b60008135905061157f81611559565b92915050565b6000806040838503121561159c5761159b6113d5565b5b60006115aa858286016114bb565b92505060206115bb85828601611570565b9150509250929050565b600080fd5b6000601f19601f8301169050919050565b7f4e487b7100000000000000000000000000000000000000000000000000000000600052604160045260246000fd5b611613826115ca565b810181811067ffffffffffffffff82111715611632576116316115db565b5b80604052505050565b60006116456113cb565b9050611651828261160a565b919050565b600067ffffffffffffffff821115611671576116706115db565b5b602082029050602081019050919050565b600080fd5b600061169a61169584611656565b61163b565b905080838252602082019050602084028301858111156116bd576116bc611682565b5b835b818110156116e657806116d28882611570565b8452602084019350506020810190506116bf565b5050509392505050565b600082601f830112611705576117046115c5565b5b8135611715848260208601611687565b91505092915050565b600060208284031215611734576117336113d5565b5b600082013567ffffffffffffffff811115611752576117516113da565b5b61175e848285016116f0565b91505092915050565b600082825260208201905092915050565b7f5061727469636970616e7465206e6f206573746120656e2077686974656c697360008201527f7400000000000000000000000000000000000000000000000000000000000000602082015250565b60006117d4602183611767565b91506117df82611778565b604082019050919050565b60006020820190508181036000830152611803816117c7565b9050919050565b6000819050919050565b7f4e487b7100000000000000000000000000000000000000000000000000000000600052601160045260246000fd5b600061184e8261180a565b91506118598361180a565b9250827fffffffffffffffffffffffffffffffffffffffffffffffffffffffffffffffff0382111561188e5761188d611814565b5b828201905092915050565b7f50617361726f6e206d617320646520323420686f726173000000000000000000600082015250565b60006118cf601783611767565b91506118da82611899565b602082019050919050565b600060208201905081810360008301526118fe816118c2565b9050919050565b61190e81611547565b82525050565b61191d8161180a565b82525050565b60006040820190506119386000830185611905565b6119456020830184611914565b9392505050565b7f416363657373436f6e74726f6c3a2063616e206f6e6c792072656e6f756e636560008201527f20726f6c657320666f722073656c660000000000000000000000000000000000602082015250565b60006119a8602f83611767565b91506119b38261194c565b604082019050919050565b600060208201905081810360008301526119d78161199b565b9050919050565b60006020820190506119f36000830184611905565b92915050565b611a028161180a565b8114611a0d57600080fd5b50565b600081519050611a1f816119f9565b92915050565b600060208284031215611a3b57611a3a6113d5565b5b6000611a4984828501611a10565b91505092915050565b7f4573746120656e206c6973746120626c616e6361000000000000000000000000600082015250565b6000611a88601483611767565b9150611a9382611a52565b602082019050919050565b60006020820190508181036000830152611ab781611a7b565b9050919050565b7f5061727469636970616e7465206e6f206573746120656e20626c75656c697374600082015250565b6000611af4602083611767565b9150611aff82611abe565b602082019050919050565b60006020820190508181036000830152611b2381611ae7565b9050919050565b7f4e487b7100000000000000000000000000000000000000000000000000000000600052603260045260246000fd5b6000611b648261180a565b91507fffffffffffffffffffffffffffffffffffffffffffffffffffffffffffffffff821415611b9757611b96611814565b5b600182019050919050565b60008160601b9050919050565b6000611bba82611ba2565b9050919050565b6000611bcc82611baf565b9050919050565b611be4611bdf82611547565b611bc1565b82525050565b6000819050919050565b611c05611c008261180a565b611bea565b82525050565b6000611c178286611bd3565b601482019150611c278285611bd3565b601482019150611c378284611bf4565b602082019150819050949350505050565b7f4e487b7100000000000000000000000000000000000000000000000000000000600052601260045260246000fd5b6000611c828261180a565b9150611c8d8361180a565b925082611c9d57611c9c611c48565b5b828206905092915050565b6000611cb38261180a565b9150611cbe8361180a565b9250817fffffffffffffffffffffffffffffffffffffffffffffffffffffffffffffffff0483118215151615611cf757611cf6611814565b5b828202905092915050565b7f50617361726f6e206d6173206465203630206d696e75746f7300000000000000600082015250565b6000611d38601983611767565b9150611d4382611d02565b602082019050919050565b60006020820190508181036000830152611d6781611d2b565b9050919050565b600081905092915050565b7f416363657373436f6e74726f6c3a206163636f756e7420000000000000000000600082015250565b6000611daf601783611d6e565b9150611dba82611d79565b601782019050919050565b600081519050919050565b60005b83811015611dee578082015181840152602081019050611dd3565b83811115611dfd576000848401525b50505050565b6000611e0e82611dc5565b611e188185611d6e565b9350611e28818560208601611dd0565b80840191505092915050565b7f206973206d697373696e6720726f6c6520000000000000000000000000000000600082015250565b6000611e6a601183611d6e565b9150611e7582611e34565b601182019050919050565b6000611e8b82611da2565b9150611e978285611e03565b9150611ea282611e5d565b9150611eae8284611e03565b91508190509392505050565b6000611ec582611dc5565b611ecf8185611767565b9350611edf818560208601611dd0565b611ee8816115ca565b840191505092915050565b60006020820190508181036000830152611f0d8184611eba565b905092915050565b6000611f208261180a565b91506000821415611f3457611f33611814565b5b600182039050919050565b7f537472696e67733a20686578206c656e67746820696e73756666696369656e74600082015250565b6000611f75602083611767565b9150611f8082611f3f565b602082019050919050565b60006020820190508181036000830152611fa481611f68565b905091905056fea26469706673582212207d432fe573f0f85ecb6c7aa116a29bb07a0652fdd33e1a59bd71c2e07a43cdba64736f6c63430008090033",
  "linkReferences": {},
  "deployedLinkReferences": {}
}